{
	"format": "sphinx-sol-ct-artifact-1",
	"address": "0x22988374af49507fec1ee78811fbc47d10d5e639",
	"sourceName": "node_modules/@bananapus/univ4-lp-split-hook-v6/src/JBUniswapV4LPSplitHook.sol",
	"contractName": "JBUniswapV4LPSplitHook",
	"chainId": "0x2105",
	"abi": [
		{
			"type": "constructor",
			"inputs": [
				{
					"name": "directory",
					"type": "address",
					"internalType": "address"
				},
				{
					"name": "permissions",
					"type": "address",
					"internalType": "contract IJBPermissions"
				},
				{
					"name": "tokens",
					"type": "address",
					"internalType": "address"
				},
				{
					"name": "permit2",
					"type": "address",
					"internalType": "contract IAllowanceTransfer"
				},
				{
					"name": "suckerRegistry",
					"type": "address",
					"internalType": "contract IJBSuckerRegistry"
				}
			],
			"stateMutability": "nonpayable"
		},
		{
			"type": "receive",
			"stateMutability": "payable"
		},
		{
			"type": "function",
			"name": "BPS",
			"inputs": [],
			"outputs": [
				{
					"name": "",
					"type": "uint256",
					"internalType": "uint256"
				}
			],
			"stateMutability": "view"
		},
		{
			"type": "function",
			"name": "DIRECTORY",
			"inputs": [],
			"outputs": [
				{
					"name": "",
					"type": "address",
					"internalType": "address"
				}
			],
			"stateMutability": "view"
		},
		{
			"type": "function",
			"name": "PERMISSIONS",
			"inputs": [],
			"outputs": [
				{
					"name": "",
					"type": "address",
					"internalType": "contract IJBPermissions"
				}
			],
			"stateMutability": "view"
		},
		{
			"type": "function",
			"name": "PERMIT2",
			"inputs": [],
			"outputs": [
				{
					"name": "",
					"type": "address",
					"internalType": "contract IAllowanceTransfer"
				}
			],
			"stateMutability": "view"
		},
		{
			"type": "function",
			"name": "POOL_FEE",
			"inputs": [],
			"outputs": [
				{
					"name": "",
					"type": "uint24",
					"internalType": "uint24"
				}
			],
			"stateMutability": "view"
		},
		{
			"type": "function",
			"name": "PROJECTS",
			"inputs": [],
			"outputs": [
				{
					"name": "",
					"type": "address",
					"internalType": "contract IJBProjects"
				}
			],
			"stateMutability": "view"
		},
		{
			"type": "function",
			"name": "SUCKER_REGISTRY",
			"inputs": [],
			"outputs": [
				{
					"name": "",
					"type": "address",
					"internalType": "contract IJBSuckerRegistry"
				}
			],
			"stateMutability": "view"
		},
		{
			"type": "function",
			"name": "TICK_SPACING",
			"inputs": [],
			"outputs": [
				{
					"name": "",
					"type": "int24",
					"internalType": "int24"
				}
			],
			"stateMutability": "view"
		},
		{
			"type": "function",
			"name": "TOKENS",
			"inputs": [],
			"outputs": [
				{
					"name": "",
					"type": "address",
					"internalType": "address"
				}
			],
			"stateMutability": "view"
		},
		{
			"type": "function",
			"name": "accumulatedProjectTokens",
			"inputs": [
				{
					"name": "projectId",
					"type": "uint256",
					"internalType": "uint256"
				}
			],
			"outputs": [
				{
					"name": "accumulatedProjectTokens",
					"type": "uint256",
					"internalType": "uint256"
				}
			],
			"stateMutability": "view"
		},
		{
			"type": "function",
			"name": "activeTickLowerOf",
			"inputs": [
				{
					"name": "projectId",
					"type": "uint256",
					"internalType": "uint256"
				},
				{
					"name": "terminalToken",
					"type": "address",
					"internalType": "address"
				}
			],
			"outputs": [
				{
					"name": "tickLower",
					"type": "int24",
					"internalType": "int24"
				}
			],
			"stateMutability": "view"
		},
		{
			"type": "function",
			"name": "activeTickUpperOf",
			"inputs": [
				{
					"name": "projectId",
					"type": "uint256",
					"internalType": "uint256"
				},
				{
					"name": "terminalToken",
					"type": "address",
					"internalType": "address"
				}
			],
			"outputs": [
				{
					"name": "tickUpper",
					"type": "int24",
					"internalType": "int24"
				}
			],
			"stateMutability": "view"
		},
		{
			"type": "function",
			"name": "addLiquidity",
			"inputs": [
				{
					"name": "projectId",
					"type": "uint256",
					"internalType": "uint256"
				},
				{
					"name": "terminalToken",
					"type": "address",
					"internalType": "address"
				},
				{
					"name": "minCashOutReturn",
					"type": "uint256",
					"internalType": "uint256"
				}
			],
			"outputs": [],
			"stateMutability": "nonpayable"
		},
		{
			"type": "function",
			"name": "buybackHook",
			"inputs": [],
			"outputs": [
				{
					"name": "",
					"type": "address",
					"internalType": "contract IJBBuybackHookRegistry"
				}
			],
			"stateMutability": "view"
		},
		{
			"type": "function",
			"name": "claimFeeTokensFor",
			"inputs": [
				{
					"name": "projectId",
					"type": "uint256",
					"internalType": "uint256"
				},
				{
					"name": "beneficiary",
					"type": "address",
					"internalType": "address"
				}
			],
			"outputs": [],
			"stateMutability": "nonpayable"
		},
		{
			"type": "function",
			"name": "claimableFeeCredits",
			"inputs": [
				{
					"name": "projectId",
					"type": "uint256",
					"internalType": "uint256"
				}
			],
			"outputs": [
				{
					"name": "claimableFeeCredits",
					"type": "uint256",
					"internalType": "uint256"
				}
			],
			"stateMutability": "view"
		},
		{
			"type": "function",
			"name": "claimableFeeTokenOf",
			"inputs": [
				{
					"name": "projectId",
					"type": "uint256",
					"internalType": "uint256"
				}
			],
			"outputs": [
				{
					"name": "claimToken",
					"type": "address",
					"internalType": "address"
				}
			],
			"stateMutability": "view"
		},
		{
			"type": "function",
			"name": "claimableFeeTokens",
			"inputs": [
				{
					"name": "projectId",
					"type": "uint256",
					"internalType": "uint256"
				}
			],
			"outputs": [
				{
					"name": "claimableFeeTokens",
					"type": "uint256",
					"internalType": "uint256"
				}
			],
			"stateMutability": "view"
		},
		{
			"type": "function",
			"name": "collectAndRouteLPFees",
			"inputs": [
				{
					"name": "projectId",
					"type": "uint256",
					"internalType": "uint256"
				},
				{
					"name": "terminalToken",
					"type": "address",
					"internalType": "address"
				}
			],
			"outputs": [],
			"stateMutability": "nonpayable"
		},
		{
			"type": "function",
			"name": "deployPool",
			"inputs": [
				{
					"name": "projectId",
					"type": "uint256",
					"internalType": "uint256"
				},
				{
					"name": "minCashOutReturn",
					"type": "uint256",
					"internalType": "uint256"
				}
			],
			"outputs": [],
			"stateMutability": "nonpayable"
		},
		{
			"type": "function",
			"name": "feePercent",
			"inputs": [],
			"outputs": [
				{
					"name": "",
					"type": "uint256",
					"internalType": "uint256"
				}
			],
			"stateMutability": "view"
		},
		{
			"type": "function",
			"name": "feeProjectId",
			"inputs": [],
			"outputs": [
				{
					"name": "",
					"type": "uint256",
					"internalType": "uint256"
				}
			],
			"stateMutability": "view"
		},
		{
			"type": "function",
			"name": "hasDeployedPool",
			"inputs": [
				{
					"name": "projectId",
					"type": "uint256",
					"internalType": "uint256"
				}
			],
			"outputs": [
				{
					"name": "hasDeployedPool",
					"type": "bool",
					"internalType": "bool"
				}
			],
			"stateMutability": "view"
		},
		{
			"type": "function",
			"name": "initialWeightOf",
			"inputs": [
				{
					"name": "projectId",
					"type": "uint256",
					"internalType": "uint256"
				}
			],
			"outputs": [
				{
					"name": "weight",
					"type": "uint256",
					"internalType": "uint256"
				}
			],
			"stateMutability": "view"
		},
		{
			"type": "function",
			"name": "initialize",
			"inputs": [
				{
					"name": "initialFeeProjectId",
					"type": "uint256",
					"internalType": "uint256"
				},
				{
					"name": "initialFeePercent",
					"type": "uint256",
					"internalType": "uint256"
				},
				{
					"name": "newPoolManager",
					"type": "address",
					"internalType": "contract IPoolManager"
				},
				{
					"name": "newPositionManager",
					"type": "address",
					"internalType": "contract IPositionManager"
				},
				{
					"name": "newOracleHook",
					"type": "address",
					"internalType": "contract IHooks"
				},
				{
					"name": "newBuybackHook",
					"type": "address",
					"internalType": "contract IJBBuybackHookRegistry"
				}
			],
			"outputs": [],
			"stateMutability": "nonpayable"
		},
		{
			"type": "function",
			"name": "isPoolDeployed",
			"inputs": [
				{
					"name": "projectId",
					"type": "uint256",
					"internalType": "uint256"
				},
				{
					"name": "terminalToken",
					"type": "address",
					"internalType": "address"
				}
			],
			"outputs": [
				{
					"name": "deployed",
					"type": "bool",
					"internalType": "bool"
				}
			],
			"stateMutability": "view"
		},
		{
			"type": "function",
			"name": "oracleHook",
			"inputs": [],
			"outputs": [
				{
					"name": "",
					"type": "address",
					"internalType": "contract IHooks"
				}
			],
			"stateMutability": "view"
		},
		{
			"type": "function",
			"name": "poolKeyOf",
			"inputs": [
				{
					"name": "projectId",
					"type": "uint256",
					"internalType": "uint256"
				},
				{
					"name": "terminalToken",
					"type": "address",
					"internalType": "address"
				}
			],
			"outputs": [
				{
					"name": "key",
					"type": "tuple",
					"internalType": "struct PoolKey",
					"components": [
						{
							"name": "currency0",
							"type": "address",
							"internalType": "Currency"
						},
						{
							"name": "currency1",
							"type": "address",
							"internalType": "Currency"
						},
						{
							"name": "fee",
							"type": "uint24",
							"internalType": "uint24"
						},
						{
							"name": "tickSpacing",
							"type": "int24",
							"internalType": "int24"
						},
						{
							"name": "hooks",
							"type": "address",
							"internalType": "contract IHooks"
						}
					]
				}
			],
			"stateMutability": "view"
		},
		{
			"type": "function",
			"name": "poolKeysOf",
			"inputs": [
				{
					"name": "projectId",
					"type": "uint256",
					"internalType": "uint256"
				},
				{
					"name": "terminalToken",
					"type": "address",
					"internalType": "address"
				}
			],
			"outputs": [
				{
					"name": "currency0",
					"type": "address",
					"internalType": "Currency"
				},
				{
					"name": "currency1",
					"type": "address",
					"internalType": "Currency"
				},
				{
					"name": "fee",
					"type": "uint24",
					"internalType": "uint24"
				},
				{
					"name": "tickSpacing",
					"type": "int24",
					"internalType": "int24"
				},
				{
					"name": "hooks",
					"type": "address",
					"internalType": "contract IHooks"
				}
			],
			"stateMutability": "view"
		},
		{
			"type": "function",
			"name": "poolManager",
			"inputs": [],
			"outputs": [
				{
					"name": "",
					"type": "address",
					"internalType": "contract IPoolManager"
				}
			],
			"stateMutability": "view"
		},
		{
			"type": "function",
			"name": "positionManager",
			"inputs": [],
			"outputs": [
				{
					"name": "",
					"type": "address",
					"internalType": "contract IPositionManager"
				}
			],
			"stateMutability": "view"
		},
		{
			"type": "function",
			"name": "processSplitWith",
			"inputs": [
				{
					"name": "context",
					"type": "tuple",
					"internalType": "struct JBSplitHookContext",
					"components": [
						{
							"name": "token",
							"type": "address",
							"internalType": "address"
						},
						{
							"name": "amount",
							"type": "uint256",
							"internalType": "uint256"
						},
						{
							"name": "decimals",
							"type": "uint256",
							"internalType": "uint256"
						},
						{
							"name": "projectId",
							"type": "uint256",
							"internalType": "uint256"
						},
						{
							"name": "groupId",
							"type": "uint256",
							"internalType": "uint256"
						},
						{
							"name": "split",
							"type": "tuple",
							"internalType": "struct JBSplit",
							"components": [
								{
									"name": "percent",
									"type": "uint32",
									"internalType": "uint32"
								},
								{
									"name": "projectId",
									"type": "uint64",
									"internalType": "uint64"
								},
								{
									"name": "beneficiary",
									"type": "address",
									"internalType": "address payable"
								},
								{
									"name": "preferAddToBalance",
									"type": "bool",
									"internalType": "bool"
								},
								{
									"name": "lockedUntil",
									"type": "uint48",
									"internalType": "uint48"
								},
								{
									"name": "hook",
									"type": "address",
									"internalType": "contract IJBSplitHook"
								}
							]
						}
					]
				}
			],
			"outputs": [],
			"stateMutability": "payable"
		},
		{
			"type": "function",
			"name": "rebalanceLiquidity",
			"inputs": [
				{
					"name": "projectId",
					"type": "uint256",
					"internalType": "uint256"
				},
				{
					"name": "terminalToken",
					"type": "address",
					"internalType": "address"
				},
				{
					"name": "decreaseAmount0Min",
					"type": "uint256",
					"internalType": "uint256"
				},
				{
					"name": "decreaseAmount1Min",
					"type": "uint256",
					"internalType": "uint256"
				}
			],
			"outputs": [],
			"stateMutability": "nonpayable"
		},
		{
			"type": "function",
			"name": "supportsInterface",
			"inputs": [
				{
					"name": "interfaceId",
					"type": "bytes4",
					"internalType": "bytes4"
				}
			],
			"outputs": [
				{
					"name": "",
					"type": "bool",
					"internalType": "bool"
				}
			],
			"stateMutability": "pure"
		},
		{
			"type": "function",
			"name": "tokenIdOf",
			"inputs": [
				{
					"name": "projectId",
					"type": "uint256",
					"internalType": "uint256"
				},
				{
					"name": "terminalToken",
					"type": "address",
					"internalType": "address"
				}
			],
			"outputs": [
				{
					"name": "tokenId",
					"type": "uint256",
					"internalType": "uint256"
				}
			],
			"stateMutability": "view"
		},
		{
			"type": "event",
			"name": "FeeTokensClaimed",
			"inputs": [
				{
					"name": "projectId",
					"type": "uint256",
					"indexed": true,
					"internalType": "uint256"
				},
				{
					"name": "beneficiary",
					"type": "address",
					"indexed": true,
					"internalType": "address"
				},
				{
					"name": "amount",
					"type": "uint256",
					"indexed": false,
					"internalType": "uint256"
				},
				{
					"name": "caller",
					"type": "address",
					"indexed": false,
					"internalType": "address"
				}
			],
			"anonymous": false
		},
		{
			"type": "event",
			"name": "LPFeesRouted",
			"inputs": [
				{
					"name": "projectId",
					"type": "uint256",
					"indexed": true,
					"internalType": "uint256"
				},
				{
					"name": "terminalToken",
					"type": "address",
					"indexed": true,
					"internalType": "address"
				},
				{
					"name": "totalAmount",
					"type": "uint256",
					"indexed": false,
					"internalType": "uint256"
				},
				{
					"name": "feeAmount",
					"type": "uint256",
					"indexed": false,
					"internalType": "uint256"
				},
				{
					"name": "remainingAmount",
					"type": "uint256",
					"indexed": false,
					"internalType": "uint256"
				},
				{
					"name": "feeTokensMinted",
					"type": "uint256",
					"indexed": false,
					"internalType": "uint256"
				},
				{
					"name": "caller",
					"type": "address",
					"indexed": false,
					"internalType": "address"
				}
			],
			"anonymous": false
		},
		{
			"type": "event",
			"name": "LiquidityAdded",
			"inputs": [
				{
					"name": "projectId",
					"type": "uint256",
					"indexed": true,
					"internalType": "uint256"
				},
				{
					"name": "terminalToken",
					"type": "address",
					"indexed": true,
					"internalType": "address"
				},
				{
					"name": "tokenId",
					"type": "uint256",
					"indexed": true,
					"internalType": "uint256"
				},
				{
					"name": "isNewPosition",
					"type": "bool",
					"indexed": false,
					"internalType": "bool"
				},
				{
					"name": "caller",
					"type": "address",
					"indexed": false,
					"internalType": "address"
				}
			],
			"anonymous": false
		},
		{
			"type": "event",
			"name": "ProjectDeployed",
			"inputs": [
				{
					"name": "projectId",
					"type": "uint256",
					"indexed": true,
					"internalType": "uint256"
				},
				{
					"name": "terminalToken",
					"type": "address",
					"indexed": true,
					"internalType": "address"
				},
				{
					"name": "poolId",
					"type": "bytes32",
					"indexed": true,
					"internalType": "bytes32"
				},
				{
					"name": "caller",
					"type": "address",
					"indexed": false,
					"internalType": "address"
				}
			],
			"anonymous": false
		},
		{
			"type": "error",
			"name": "JBMetadataResolver_DataNotPadded",
			"inputs": [
				{
					"name": "dataLength",
					"type": "uint256",
					"internalType": "uint256"
				}
			]
		},
		{
			"type": "error",
			"name": "JBMetadataResolver_MetadataTooLong",
			"inputs": [
				{
					"name": "offset",
					"type": "uint256",
					"internalType": "uint256"
				},
				{
					"name": "maxOffset",
					"type": "uint256",
					"internalType": "uint256"
				}
			]
		},
		{
			"type": "error",
			"name": "JBMetadataResolver_MetadataTooShort",
			"inputs": [
				{
					"name": "metadataLength",
					"type": "uint256",
					"internalType": "uint256"
				},
				{
					"name": "minMetadataLength",
					"type": "uint256",
					"internalType": "uint256"
				}
			]
		},
		{
			"type": "error",
			"name": "JBPermissioned_Unauthorized",
			"inputs": [
				{
					"name": "account",
					"type": "address",
					"internalType": "address"
				},
				{
					"name": "sender",
					"type": "address",
					"internalType": "address"
				},
				{
					"name": "projectId",
					"type": "uint256",
					"internalType": "uint256"
				},
				{
					"name": "permissionId",
					"type": "uint256",
					"internalType": "uint256"
				}
			]
		},
		{
			"type": "error",
			"name": "JBUniswapV4LPSplitHook_AlreadyInitialized",
			"inputs": []
		},
		{
			"type": "error",
			"name": "JBUniswapV4LPSplitHook_ExistingPoolPriceOutOfBounds",
			"inputs": [
				{
					"name": "existingPrice",
					"type": "uint160",
					"internalType": "uint160"
				},
				{
					"name": "lowerBound",
					"type": "uint160",
					"internalType": "uint160"
				},
				{
					"name": "upperBound",
					"type": "uint160",
					"internalType": "uint160"
				}
			]
		},
		{
			"type": "error",
			"name": "JBUniswapV4LPSplitHook_FeePercentWithoutFeeProject",
			"inputs": [
				{
					"name": "feePercent",
					"type": "uint256",
					"internalType": "uint256"
				},
				{
					"name": "feeProjectId",
					"type": "uint256",
					"internalType": "uint256"
				}
			]
		},
		{
			"type": "error",
			"name": "JBUniswapV4LPSplitHook_InsufficientBalance",
			"inputs": [
				{
					"name": "available",
					"type": "uint256",
					"internalType": "uint256"
				},
				{
					"name": "required",
					"type": "uint256",
					"internalType": "uint256"
				}
			]
		},
		{
			"type": "error",
			"name": "JBUniswapV4LPSplitHook_InsufficientLiquidity",
			"inputs": [
				{
					"name": "liquidity",
					"type": "uint128",
					"internalType": "uint128"
				}
			]
		},
		{
			"type": "error",
			"name": "JBUniswapV4LPSplitHook_InvalidFeePercent",
			"inputs": [
				{
					"name": "feePercent",
					"type": "uint256",
					"internalType": "uint256"
				},
				{
					"name": "maxFeePercent",
					"type": "uint256",
					"internalType": "uint256"
				}
			]
		},
		{
			"type": "error",
			"name": "JBUniswapV4LPSplitHook_InvalidProjectId",
			"inputs": [
				{
					"name": "projectId",
					"type": "uint256",
					"internalType": "uint256"
				},
				{
					"name": "controller",
					"type": "address",
					"internalType": "address"
				},
				{
					"name": "projectToken",
					"type": "address",
					"internalType": "address"
				}
			]
		},
		{
			"type": "error",
			"name": "JBUniswapV4LPSplitHook_InvalidStageForAction",
			"inputs": [
				{
					"name": "projectId",
					"type": "uint256",
					"internalType": "uint256"
				},
				{
					"name": "terminalToken",
					"type": "address",
					"internalType": "address"
				},
				{
					"name": "tokenId",
					"type": "uint256",
					"internalType": "uint256"
				}
			]
		},
		{
			"type": "error",
			"name": "JBUniswapV4LPSplitHook_InvalidTerminalToken",
			"inputs": [
				{
					"name": "projectId",
					"type": "uint256",
					"internalType": "uint256"
				},
				{
					"name": "terminalToken",
					"type": "address",
					"internalType": "address"
				}
			]
		},
		{
			"type": "error",
			"name": "JBUniswapV4LPSplitHook_NoTokensAccumulated",
			"inputs": [
				{
					"name": "projectId",
					"type": "uint256",
					"internalType": "uint256"
				}
			]
		},
		{
			"type": "error",
			"name": "JBUniswapV4LPSplitHook_NotHookSpecifiedInContext",
			"inputs": [
				{
					"name": "expectedHook",
					"type": "address",
					"internalType": "address"
				},
				{
					"name": "actualHook",
					"type": "address",
					"internalType": "address"
				}
			]
		},
		{
			"type": "error",
			"name": "JBUniswapV4LPSplitHook_OnlyOneTerminalTokenSupported",
			"inputs": [
				{
					"name": "projectId",
					"type": "uint256",
					"internalType": "uint256"
				},
				{
					"name": "terminalToken",
					"type": "address",
					"internalType": "address"
				}
			]
		},
		{
			"type": "error",
			"name": "JBUniswapV4LPSplitHook_Permit2AmountOverflow",
			"inputs": [
				{
					"name": "token",
					"type": "address",
					"internalType": "address"
				},
				{
					"name": "amount",
					"type": "uint256",
					"internalType": "uint256"
				},
				{
					"name": "maxAmount",
					"type": "uint256",
					"internalType": "uint256"
				}
			]
		},
		{
			"type": "error",
			"name": "JBUniswapV4LPSplitHook_PoolAlreadyDeployed",
			"inputs": [
				{
					"name": "projectId",
					"type": "uint256",
					"internalType": "uint256"
				},
				{
					"name": "terminalToken",
					"type": "address",
					"internalType": "address"
				},
				{
					"name": "tokenId",
					"type": "uint256",
					"internalType": "uint256"
				}
			]
		},
		{
			"type": "error",
			"name": "JBUniswapV4LPSplitHook_PriceDeviationTooHigh",
			"inputs": [
				{
					"name": "spotTick",
					"type": "int24",
					"internalType": "int24"
				},
				{
					"name": "twapTick",
					"type": "int24",
					"internalType": "int24"
				},
				{
					"name": "maxDeviationTicks",
					"type": "int24",
					"internalType": "int24"
				}
			]
		},
		{
			"type": "error",
			"name": "JBUniswapV4LPSplitHook_SplitSenderNotValidControllerOrTerminal",
			"inputs": [
				{
					"name": "projectId",
					"type": "uint256",
					"internalType": "uint256"
				},
				{
					"name": "sender",
					"type": "address",
					"internalType": "address"
				},
				{
					"name": "controller",
					"type": "address",
					"internalType": "address"
				}
			]
		},
		{
			"type": "error",
			"name": "JBUniswapV4LPSplitHook_TemporaryAllowanceNotConsumed",
			"inputs": [
				{
					"name": "token",
					"type": "address",
					"internalType": "address"
				},
				{
					"name": "spender",
					"type": "address",
					"internalType": "address"
				},
				{
					"name": "allowance",
					"type": "uint256",
					"internalType": "uint256"
				}
			]
		},
		{
			"type": "error",
			"name": "JBUniswapV4LPSplitHook_TerminalNotFound",
			"inputs": [
				{
					"name": "projectId",
					"type": "uint256",
					"internalType": "uint256"
				},
				{
					"name": "token",
					"type": "address",
					"internalType": "address"
				}
			]
		},
		{
			"type": "error",
			"name": "JBUniswapV4LPSplitHook_TerminalTokensNotAllowed",
			"inputs": [
				{
					"name": "groupId",
					"type": "uint256",
					"internalType": "uint256"
				},
				{
					"name": "requiredGroupId",
					"type": "uint256",
					"internalType": "uint256"
				}
			]
		},
		{
			"type": "error",
			"name": "JBUniswapV4LPSplitHook_TwapUnavailable",
			"inputs": [
				{
					"name": "projectId",
					"type": "uint256",
					"internalType": "uint256"
				},
				{
					"name": "terminalToken",
					"type": "address",
					"internalType": "address"
				}
			]
		},
		{
			"type": "error",
			"name": "JBUniswapV4LPSplitHook_UnclaimedFeeTokenChanged",
			"inputs": [
				{
					"name": "previousToken",
					"type": "address",
					"internalType": "address"
				},
				{
					"name": "nextToken",
					"type": "address",
					"internalType": "address"
				}
			]
		},
		{
			"type": "error",
			"name": "JBUniswapV4LPSplitHook_ZeroLiquidity",
			"inputs": [
				{
					"name": "amount0",
					"type": "uint256",
					"internalType": "uint256"
				},
				{
					"name": "amount1",
					"type": "uint256",
					"internalType": "uint256"
				}
			]
		},
		{
			"type": "error",
			"name": "PRBMath_MulDiv_Overflow",
			"inputs": [
				{
					"name": "x",
					"type": "uint256",
					"internalType": "uint256"
				},
				{
					"name": "y",
					"type": "uint256",
					"internalType": "uint256"
				},
				{
					"name": "denominator",
					"type": "uint256",
					"internalType": "uint256"
				}
			]
		},
		{
			"type": "error",
			"name": "SafeERC20FailedOperation",
			"inputs": [
				{
					"name": "token",
					"type": "address",
					"internalType": "address"
				}
			]
		}
	],
	"args": [
		"0x5AfF29060E023e6FB87BE5596652B33c65Af535B",
		"0xf92AC1aB5A00033E35a3975739124F61928C36B0",
		"0x1f80d8f057eE36b4C2656D107E4e4558B71bA7D9",
		"0x000000000022D473030F116dDEE9F6B43aC78BA3",
		"0x7903a854aE91eAf635430D120a1a434085cEf297"
	],
	"solcInputHash": "60d182c5319542d99b68fc5718c857d9",
	"bytecode": "0x61014080604052346101d55760a081615e36803803809161002082856101ec565b8339810103126101d55761003381610223565b6020820151916001600160a01b03831683036101d55761005560408201610223565b6060820151909390916001600160a01b03831683036101d55760800151926001600160a01b03841684036101d5576004926020926080528160a05260c0526040519283809263293c499960e01b825260018060a01b03165afa9081156101e1575f9161019b575b5060e0526101005261012052604051615bfe908161023882396080518181816101ba015261395d015260a05181818161051b01528181611069015281816115b30152818161177401528181612700015281816128740152818161322101528181613a710152613f2b015260c051818181611dab015281816150ea01526151b4015260e051818181611ed401526138680152610100518181816104fa01528181610ed7015281816110480152818161197f0152818161324f01528181613a500152613f53015261012051818181611f95015281816127ff0152613df80152f35b90506020813d6020116101d9575b816101b6602093836101ec565b810103126101d557516001600160a01b03811681036101d5575f6100bc565b5f80fd5b3d91506101a9565b6040513d5f823e3d90fd5b601f909101601f19168101906001600160401b0382119082101761020f57604052565b634e487b7160e01b5f52604160045260245ffd5b51906001600160a01b03821682036101d55756fe608080604052600436101561001c575b50361561001a575f80fd5b005b5f905f3560e01c90816301ffc9a71461214a575080630c39832a1461211b57806310e51e1414611fc45780631d831d5c14611f805780632322bc7c14611f3c578063249d39e914611f2057806326c0e4b214611f03578063293c499914611ebf578063293d9dfe14611e955780633676996c14611e6357806345d1012d14611e3c57806346ca626b14611e215780634f3a8ba814611dda5780636afdd85014611d96578063718a77ed14611d4f57806374a2fa6d14611705578063791b98bc146116dd5780637fd6f15c146116c0578063826a5e7414611665578063860870a7146115e257806388bc2ef31461159e5780639785f1ed14611576578063978db958146114d85780639aa5d46214610f4c578063a866583514610f06578063b5d2553314610ec2578063bd81a3de14610e98578063c15a6fce14610e6e578063c5a0938814610ad3578063cd0802e51461088b578063ce974d151461025c578063dc4c90d314610233578063dd1b9c4a14610216578063ecb567a7146101ec5763f434c9140361000f57346101e957806003193601126101e9576040517f00000000000000000000000000000000000000000000000000000000000000006001600160a01b03168152602090f35b80fd5b50346101e95760203660031901126101e95760406020916004358152600b83522054604051908152f35b50346101e957806003193601126101e95760206040516127108152f35b50346101e957806003193601126101e9576002546040516001600160a01b039091168152602090f35b50346101e95760803660031901126101e9576004359061027a61219d565b9061028d836102888161384b565b6138d7565b6001600160a01b0361029f8385612843565b161561086a57828152600d6020526040812060018060a01b0383165f5260205260405f20548015610849576102d3846127e2565b848352600c6020526040832060018060a01b0385165f526020526102f960405f2061251f565b91610305838688612b53565b610312838287858a612a3b565b6040516370a0823160e01b81523060048201526001600160a01b03831695906020816024818a5afa90811561083e57869161080c575b50610452610355836139d6565b604051600360f81b6020820152601160f81b602182015290949061044d9061038a81602281015b03601f198101835282612243565b6103926128d0565b926040519060208201526001600160801b036044351660408201526001600160801b036064351660608201526080808201528a60a082015260a081526103d960c082612243565b6103e284612944565b526103ec83612944565b5088516020808b0151604080516001600160a01b0394851693810193909352921691810191909152306060820152610427816080810161037c565b61043084612965565b5261043a83612965565b5061037c604051938492602084016129c9565b613bde565b6040516370a0823160e01b81523060048201526020816024818b5afa9081156107905787916107d8575b506104999161048a916126c2565b92610494836139d6565b6126c2565b926104a3886126e3565b6040516320c94b1360e11b8152600481018a905298906103808a6024816001600160a01b0385165afa998a156107cd579960409161054c9a9b8a9261079b575b50825163ef200d5560e01b81529a8b9283928789887f00000000000000000000000000000000000000000000000000000000000000007f00000000000000000000000000000000000000000000000000000000000000006001600160a01b031660048901612661565b038173ef2242dc7e8a082ce00c943548e414598896c4f45af48015610790578798889161075b575b5061057e87613d3e565b8a6105d961058b8c614140565b928b61059686614140565b936001600160a01b036105a88b61502f565b16808210156107565750885b6001600160a01b03161493841561074d578a9485925b5015610744578b95869361446d565b6001600160801b03811680156107325750602060249a9b9c9d6040519b8c80926370a0823160e01b82523060048301525afa998a15610727578d908d9b6106e7575b50908461063394939261062d8a6139d6565b9d614508565b61063b614785565b5f1981019a908b116106d357899a836106d09b52600d60205260408c2060018060a01b0387165f5260205260405f2055828b52600e60205260408b2060018060a01b0386165f5260205260405f209062ffffff198254169062ffffff16179055818a52600f60205260408a2060018060a01b0385165f5260205260405f209062ffffff198254169062ffffff161790556147bc565b80f35b634e487b7160e01b8a52601160045260248afd5b9392919a50506020833d60201161071f575b8161070660209383612243565b8101031261071b579151989091908c8461061b565b5f80fd5b3d91506106f9565b6040513d8e823e3d90fd5b6364407c8960e01b8c5260045260248bfd5b8a95869361446d565b8b9485926105ca565b6105b4565b905061078091985060403d604011610789575b6107788183612243565b8101906125aa565b9790975f610574565b503d61076e565b6040513d89823e3d90fd5b6107be9192506103803d81116107c6575b6107b68183612243565b8101906122b9565b50905f6104e3565b503d6107ac565b6040513d8a823e3d90fd5b90506020813d602011610804575b816107f360209383612243565b8101031261071b575161049961047c565b3d91506107e6565b90506020813d602011610836575b8161082760209383612243565b8101031261071b57515f610348565b3d915061081a565b6040513d88823e3d90fd5b60649284638623c06f60e01b845260045260018060a01b0316602452604452fd5b634550cd6f60e11b81526004929092526001600160a01b0316602452604490fd5b503461071b57604036600319011261071b576004356108a861219d565b906108b6816102888161384b565b805f52600960205260405f2054806109dc575b50805f52600760205260405f205491826108e1578380f35b5f82815260076020526040812055600454906001600160a01b03610904836126e3565b1691823b1561071b575f9160848392604051948593849263b1e6d2a160e01b8452306004850152602484015260018060a01b0316968760448401528960648401525af190816109c7575b5061096857508252600760205260408220555b5f80808380f35b916109bf7f908d0dfd8e6a1766b34c117564501edc5353761bd2c7b158a6767efbf8885f639160045486526011602052604086206109a78282546126c2565b90556040805191825233602083015290918291820190565b0390a3610961565b6109d49195505f90612243565b5f935f61094e565b5f82815260086020908152604080832080546009845282852085905581546001600160a01b0319169091556001600160a01b031680845260129092529091208054919291610a2b9083906126c2565b9055604080518281523360208201526001600160a01b0386169291839186917f908d0dfd8e6a1766b34c117564501edc5353761bd2c7b158a6767efbf8885f6391a36040519163a9059cbb60e01b5f5260045260245260205f60448180865af19060015f5114821615610ab2575b6040526108c957635274afe760e01b5f5260045260245ffd5b906001811516610aca57823b15153d15161690610a99565b503d5f823e3d90fd5b61016036600319011261071b576001600160a01b03610af06126ab565b163003610e47576064356001600160a01b03610b0b826126e3565b168015610e2d57338103610e135760843560018103610dfc5750610b2e826127e2565b6001600160a01b0381168015610de2575f9260243580610ca7575b50845f52600b60205260405f205415610c31575b50602090602493855f5260068352610b7a60405f2091825461314b565b90556040516370a0823160e01b815230600482015293849182905afa918215610c26575f92610bf0575b5090610bb2610bb8926137c3565b906126c2565b90805f52600660205260405f20548210610bce57005b5f52600660205260405f2054906325a34a5760e11b5f5260045260245260445ffd5b91506020823d602011610c1e575b81610c0b60209383612243565b8101031261071b57905190610bb2610ba4565b3d9150610bfe565b6040513d5f823e3d90fd5b90610380602492604051938480926320c94b1360e11b82528960048301525afa938415610c26576001600160701b0360a06024966020955f91610c87575b50015116865f52600b845260405f2055935090610b5d565b610ca091506103803d81116107c6576107b68183612243565b5089610c6f565b6040516370a0823160e01b815230600482015291945090602081602481865afa908115610c26575f91610db0575b50604051916323b872dd60e01b5f52336004523060245260445260205f60648180875af160015f5114811615610d91575b826040525f60605215610d7e576370a0823160e01b8252306004830152602082602481865afa8015610c26575f90610d4a575b610d4392506126c2565b9285610b49565b506020823d602011610d76575b81610d6460209383612243565b8101031261071b57610d439151610d39565b3d9150610d57565b82635274afe760e01b5f5260045260245ffd5b6001811516610da757833b15153d151616610d06565b823d5f823e3d90fd5b90506020813d602011610dda575b81610dcb60209383612243565b8101031261071b575186610cd5565b3d9150610dbe565b82846375f5afe960e01b5f5260045260245260445260645ffd5b631e34745960e11b5f52600452600160245260445ffd5b9063b4c20d6760e01b5f526004523360245260445260645ffd5b906375f5afe960e01b5f526004526024525f60445260645ffd5b6001600160a01b03610e576126ab565b16637f4205dd60e11b5f523060045260245260445ffd5b3461071b57602036600319011261071b576004355f526007602052602060405f2054604051908152f35b3461071b57602036600319011261071b576004355f526006602052602060405f2054604051908152f35b3461071b575f36600319011261071b576040517f00000000000000000000000000000000000000000000000000000000000000006001600160a01b03168152602090f35b3461071b57604036600319011261071b57610f1f61219d565b6004355f52600d60205260405f209060018060a01b03165f52602052602060405f20541515604051908152f35b3461071b57606036600319011261071b57600435610f6861219d565b815f52600d60205260405f2060018060a01b0382165f5260205260405f20549182156114b857610f97816126e3565b6040516320c94b1360e11b8152600481018390526001600160a01b0382169461038082602481895afa918215610c26575f92611496575b50610fd98285612787565b835f52600660205260405f20549283156114835795829186976040611035988861109a611005826127e2565b988995835f52600c602052855f2060018060a01b0386165f5260205261102c865f2061251f565b9d8e8686612b53565b855163ef200d5560e01b815296879586957f00000000000000000000000000000000000000000000000000000000000000007f00000000000000000000000000000000000000000000000000000000000000006001600160a01b031660048901612661565b038173ef2242dc7e8a082ce00c943548e414598896c4f45af4958615610c26575f915f97611460575b50875f52600e60205260405f2060018060a01b038b165f526020526101906110f260405f205460020b8461312a565b60020b13918215611426575b9282935f9361123c575b61119c9890851561121357905b85156111ea57915b85156111e457505f9b5b604051986111348a612226565b8b8a5260018060a01b031660208a015260018060a01b03169a8b60408a0152606089015260020b608088015260020b60a087015260c086015260443560e086015261010085015215159687610120850152610140840152610160830152610180820152613158565b805f52600d60205260405f20825f526020527f85dfdb7bf22c5cc99f5a0cc5f318d28b441810bb08c1b718bc1079008fcda2e96040805f2054948151908152336020820152a4005b9b611127565b50895f52600f60205260405f2060018060a01b038d165f5260205260405f205460020b9161111d565b50895f52600e60205260405f2060018060a01b038d165f5260205260405f205460020b90611115565b9250905061124d89828c898c612a3b565b6040516370a0823160e01b8152306004820152966001600160a01b038716602089602481845afa988915610c26575f996113e9575b509060249392916112928d6139d6565b604051600360f81b6020820152601160f81b6021820152909a90611347908e9061044d906112c3816022810161037c565b6112cb6128d0565b926040518960208201525f60408201525f60608201526080808201525f60a082015260a081526112fc60c082612243565b61130585612944565b5261130f84612944565b508051602091820151604080516001600160a01b0393841694810194909452911690820152306060820152610427816080810161037c565b8b5f526006602052602060405f205492604051978880926370a0823160e01b82523060048301525afa8015610c26578e965f916113ae575b5061139e6113a49361139861119c9e94610494946126c2565b9061314b565b966139d6565b9392909850611108565b9b9196505060208b3d6020116113e1575b816113cc60209383612243565b8101031261071b5799518d959061139e61137f565b3d91506113bf565b9392919098506020843d60201161141e575b8161140860209383612243565b8101031261071b57602493519890919293611282565b3d91506113fb565b9150875f52600f60205260405f2060018060a01b038b165f5260205261019061145660405f205460020b8961312a565b60020b13916110fe565b90965061147c915060403d604011610789576107788183612243565b958a6110c3565b84631050251960e11b5f5260045260245ffd5b6114b09192506103803d81116107c6576107b68183612243565b509086610fce565b638623c06f60e01b5f5260045260018060a01b031660245260445260645ffd5b3461071b57604036600319011261071b576004356114f461219d565b90805f52600d60205260405f2060018060a01b0383165f5260205260405f2054918215611555579161001a92611529836127e2565b835f52600c60205260405f2060018060a01b0383165f5260205261154f60405f2061251f565b93612a3b565b90638623c06f60e01b5f5260045260018060a01b031660245260445260645ffd5b3461071b575f36600319011261071b576001546040516001600160a01b039091168152602090f35b3461071b575f36600319011261071b576040517f00000000000000000000000000000000000000000000000000000000000000006001600160a01b03168152602090f35b3461071b57604036600319011261071b576115fb61219d565b6004355f908152600c602090815260408083206001600160a01b03948516845282529182902080546001820154600292830154855192871683528187169483019490945260a081811c62ffffff169583019590955260b81c90910b60608201529216608083015290f35b3461071b57604036600319011261071b5761167e61219d565b611686612572565b506004355f52600c60205260405f209060018060a01b03165f5260205260a06116b160405f2061251f565b6116be60405180926121b3565bf35b3461071b575f36600319011261071b576020600554604051908152f35b3461071b575f36600319011261071b576003546040516001600160a01b039091168152602090f35b3461071b57604036600319011261071b57600435611722816126e3565b6040516320c94b1360e11b8152600481018390526001600160a01b038216919061038081602481865afa908115610c26575f91611d2f575b506117658185612787565b604051632c11262b60e11b81527f00000000000000000000000000000000000000000000000000000000000000006001600160a01b031660048201819052602482018690526044820194909452929173ef2242dc7e8a082ce00c943548e414598896c4f4602085606481845af4948515610c26575f95611cf3575b50855f52600d60205260405f2060018060a01b0386165f5260205260405f2054611cb457855f52600a60205260ff60405f205416611c9157611821866127e2565b90865f52600660205260405f205415611c7e576001600160a01b036118468789612843565b1615611c5b575f878152600a60209081526040808320805460ff19166001179055600d82528083206001600160a01b038a1684529091529020548790156118fa575b505061189a9350846024359187613a1c565b815f52600c60205260405f2060018060a01b0382165f5260205260a06118c260405f2061251f565b20917f61f2675031f59d21563ef85d55fe3d258a504397e4a77c0ba13ad620ce073ab560206040519333855260018060a01b031693a4005b61271095611906612572565b50856119118961502f565b6001600160a01b0386811695918891811687811015611c53575095935b8760208d60018060a01b0360015416986040519a61194b8c6121f6565b60018060a01b03168b52828b019860018060a01b0316895260408b019e8f526119bc60608c019860c88a5260808d019b8c527f000000000000000000000000000000000000000000000000000000000000000097604051968795869563316d0fe560e01b87528b8b60048901612661565b0381875af4918215610c26578b948f91948f94958d968d955f91611c09575b50976119e68d613d3e565b976001600160a01b0389169687611b2e575b5050505050505050505060205f9160c460018060a01b036003541691604051948593849263f702040560e01b8452611a33600485018d6121b3565b6001600160a01b031660a48401525af18015610c2657611ae8575b505f8a8152600c602090815260408083206001600160a01b038d811685529252909120945185549082166001600160a01b031991821617865592516001860180549a51935160b81b62ffffff60b81b1662ffffff60a01b60a09590951b949094169183166001600160d01b0319909b169a909a1717919091179097559051600290920180549290961691161790935561189a928686611888565b9291906020843d602011611b26575b81611b0460209383612243565b8101031261071b5761189a98611b1b60029561259c565b509850909192611a4e565b3d9150611af7565b60409798999a5090611b57929188519a8b988997889763ef200d5560e01b895260048901612661565b03915af4918215610c26575f905f93611bde575b50611b78611b7e91614140565b92614140565b916001600160a01b031690818111801590611bcb575b611bab5750505060208a8d8d8180808e8e8e6119f8565b63e3b1ec1560e01b5f5260045260245260018060a01b031660445260645ffd5b506001600160a01b038316811015611b94565b611b789350611b7e9150611c009060403d604011610789576107788183612243565b93909150611b6b565b955050965093509350506020813d602011611c4b575b81611c2c60209383612243565b8101031261071b578d8a938e938d96611c458d956122a5565b5f6119db565b3d9150611c1f565b94905061192e565b634550cd6f60e11b5f90815260048890526001600160a01b038716602452604490fd5b86631050251960e11b5f5260045260245ffd5b63465fb04d60e11b5f90815260048790526001600160a01b038616602452604490fd5b5f868152600d602090815260408083206001600160a01b038916808552925282205463f639028560e01b83526004899052602491909152604452606490fd5b9094506020813d602011611d27575b81611d0f60209383612243565b8101031261071b57611d20906122a5565b93866117e0565b3d9150611d02565b611d4891506103803d81116107c6576107b68183612243565b508461175a565b3461071b57604036600319011261071b57611d6861219d565b6004355f52600e60205260405f209060018060a01b03165f52602052602060405f205460020b604051908152f35b3461071b575f36600319011261071b576040517f00000000000000000000000000000000000000000000000000000000000000006001600160a01b03168152602090f35b3461071b57604036600319011261071b57611df361219d565b6004355f52600f60205260405f209060018060a01b03165f52602052602060405f205460020b604051908152f35b3461071b575f36600319011261071b57602060405160c88152f35b3461071b575f36600319011261071b575f546040516001600160a01b039091168152602090f35b3461071b57602036600319011261071b576004355f526008602052602060018060a01b0360405f205416604051908152f35b3461071b57602036600319011261071b576004355f526009602052602060405f2054604051908152f35b3461071b575f36600319011261071b576040517f00000000000000000000000000000000000000000000000000000000000000006001600160a01b03168152602090f35b3461071b575f36600319011261071b576020600454604051908152f35b3461071b575f36600319011261071b5760206040516127108152f35b3461071b57604036600319011261071b57611f5561219d565b6004355f52600d60205260405f209060018060a01b03165f52602052602060405f2054604051908152f35b3461071b575f36600319011261071b576040517f00000000000000000000000000000000000000000000000000000000000000006001600160a01b03168152602090f35b3461071b5760c036600319011261071b576024356004356044356001600160a01b0381169081900361071b576064356001600160a01b038116919082900361071b576084356001600160a01b038116939084900361071b5760a4356001600160a01b038116959086900361071b57600254916001600160a01b03831661210c57831561210c5761271082116120f357811515806120eb575b6120d557806120b7575b6004556005556001600160601b0360a01b16176002556001600160601b0360a01b60035416176003556001600160601b0360a01b60015416176001556001600160601b0360a01b5f5416175f555f80f35b6001600160a01b036120c8826126e3565b168015610e2d5750612066565b9063d95b2ff360e01b5f5260045260245260445ffd5b50801561205c565b50632b478a5160e21b5f5260045261271060245260445ffd5b631cb8f72960e11b5f5260045ffd5b3461071b57602036600319011261071b576004355f52600a602052602060ff60405f2054166040519015158152f35b3461071b57602036600319011261071b576004359063ffffffff60e01b821680920361071b5760209163e49655b760e01b811490811561218c575b5015158152f35b6318b4127160e31b14905083612185565b602435906001600160a01b038216820361071b57565b80516001600160a01b03908116835260208083015182169084015260408083015162ffffff169084015260608083015160020b9084015260809182015116910152565b60a0810190811067ffffffffffffffff82111761221257604052565b634e487b7160e01b5f52604160045260245ffd5b6101a0810190811067ffffffffffffffff82111761221257604052565b90601f8019910116810190811067ffffffffffffffff82111761221257604052565b519065ffffffffffff8216820361071b57565b519063ffffffff8216820361071b57565b519061ffff8216820361071b57565b5190811515820361071b57565b51906001600160a01b038216820361071b57565b8092910391610380831261071b57610120831261071b57604051610120810181811067ffffffffffffffff821117612212576040526122f782612265565b815261230560208301612265565b602082015261231660408301612265565b604082015261232760608301612265565b606082015261233860808301612278565b608082015260a08201516001600160701b038116810361071b5760a082015261236360c08301612278565b60c082015260e0820151906001600160a01b038216820361071b576102609160e08201526101008301516101008201529361011f19011261071b5760405190610260820182811067ffffffffffffffff8211176122125761251691610360916040526123d26101208201612289565b84526123e16101408201612289565b60208501526123f36101608201612278565b60408501526124056101808201612298565b60608501526124176101a08201612298565b60808501526124296101c08201612298565b60a085015261243b6101e08201612298565b60c085015261244d6102008201612298565b60e085015261245f6102208201612298565b6101008501526124726102408201612298565b6101208501526124856102608201612298565b6101408501526124986102808201612298565b6101608501526124ab6102a08201612298565b6101808501526124be6102c08201612298565b6101a08501526124d16102e08201612298565b6101c08501526124e46103008201612298565b6101e08501526124f76103208201612298565b61020085015261250a61034082016122a5565b61022085015201612289565b61024082015290565b9060405161252c816121f6565b82546001600160a01b0390811682526001840154808216602084015260a081901c62ffffff16604084015260b81c600290810b6060840152909301549092166080830152565b6040519061257f826121f6565b5f6080838281528260208201528260408201528260608201520152565b51908160020b820361071b57565b919082604091031261071b576125cb60206125c48461259c565b930161259c565b90565b610100809165ffffffffffff815116845265ffffffffffff602082015116602085015265ffffffffffff604082015116604085015265ffffffffffff606082015116606085015263ffffffff60808201511660808501526001600160701b0360a08201511660a085015263ffffffff60c08201511660c085015260018060a01b0360e08201511660e08501520151910152565b6001600160a01b0391821681529181166020830152604082019290925291811660608301529182166080820152911660a08201526101e0810192916126a99160c001906125ce565b565b610144356001600160a01b038116810361071b5790565b919082039182116126cf57565b634e487b7160e01b5f52601160045260245ffd5b604051632eec7b5560e11b815260048101919091526020816024817f00000000000000000000000000000000000000000000000000000000000000006001600160a01b03165afa908115610c26575f91612745575b506001600160a01b031690565b90506020813d60201161277f575b8161276060209383612243565b8101031261071b57516001600160a01b038116810361071b575f612738565b3d9150612753565b90815f52600b60205260405f205480159182156127b5575b50506127a85750565b806102886126a99261384b565b600a91925060a06001600160701b0391015116026001600160701b0381169081036126cf57115f8061279f565b60405163ea78803f60e01b815260048101919091526020816024817f00000000000000000000000000000000000000000000000000000000000000006001600160a01b03165afa908115610c26575f9161274557506001600160a01b031690565b604051630862026560e41b815260048101919091526001600160a01b039091166024820152602081806044810103817f00000000000000000000000000000000000000000000000000000000000000006001600160a01b03165afa908115610c26575f9161274557506001600160a01b031690565b67ffffffffffffffff81116122125760051b60200190565b604051606091906128e18382612243565b6002815291601f1901825f5b8281106128f957505050565b8060606020809385010152016128ed565b60405160c0919061291b8382612243565b6005815291601f1901825f5b82811061293357505050565b806060602080938501015201612927565b8051156129515760200190565b634e487b7160e01b5f52603260045260245ffd5b8051600110156129515760400190565b8051600210156129515760600190565b8051600310156129515760800190565b8051600410156129515760a00190565b805180835260209291819084018484015e5f828201840152601f01601f1916010190565b906129dc906040835260408301906129a5565b906020818303910152815180825260208201916020808360051b8301019401925f915b838310612a0e57505050505090565b9091929394602080612a2c600193601f1986820301875289516129a5565b970193019301919392906129ff565b9290612b4d6126a9959392610494612b3d612a5e60018060a01b03885116613ba0565b6104946020890198612b2e612a7b60018060a01b038c5116613ba0565b604051600160f81b6020820152601160f81b60218201526002815290979061044d90612aa8602282612243565b612ab06128d0565b926040519060208201525f60408201525f60608201525f608082015260a0808201525f60c082015260c08152612ae760e082612243565b612af084612944565b52612afa83612944565b5084518e51604080516001600160a01b0393841660208201529290911690820152306060820152610427816080810161037c565b516001600160a01b0316613ba0565b95516001600160a01b0316613ba0565b93613c93565b91929092604051612b65606082612243565b6002815260208101906040368337610708612b7f82612944565b525f612b8a82612965565b52600154604051637cb7cbf960e11b8152926001600160a01b039091169183919060c4830190612bbd60048501886121b3565b60c060a48501525180915260e4830191905f5b8181106130ee575050509181805f9403915afa5f9181612fdb575b50612c1057505050639dbd540560e01b5f5260045260018060a01b031660245260445ffd5b9390929193916002835110612fbe575050612c37612c2d82612965565b5160060b91612944565b5160060b9003667fffffffffffff198112667fffffffffffff8213176126cf5760060b90610708820560020b915f81129081612fad575b50612f98575b612c7d90613d3e565b73fffd8963efd1fc6a506488495d951d51639616826401000276a21982016001600160a01b031611612f7857602081901b640100000000600160c01b031680801561071b5760ff826001600160801b031060071b83811c67ffffffffffffffff1060061b1783811c63ffffffff1060051b1783811c61ffff1060041b1783811c821060031b177f07060605060205000602030205040001060502050303040105050304000000006f8421084210842108cc6318c6db6d54be85831c1c601f161a17169160808310155f14612f6c5750607e1982011c5b800280607f1c8160ff1c1c800280607f1c8160ff1c1c800280607f1c8160ff1c1c800280607f1c8160ff1c1c800280607f1c8160ff1c1c800280607f1c8160ff1c1c80029081607f1c8260ff1c1c80029283607f1c8460ff1c1c80029485607f1c8660ff1c1c80029687607f1c8860ff1c1c80029889607f1c8a60ff1c1c80029a8b607f1c8c60ff1c1c80029c8d80607f1c9060ff1c1c800260cd1c6604000000000000169d60cc1c6608000000000000169c60cb1c6610000000000000169b60ca1c6620000000000000169a60c91c6640000000000000169960c81c6680000000000000169860c71c670100000000000000169760c61c670200000000000000169660c51c670400000000000000169560c41c670800000000000000169460c31c671000000000000000169360c21c672000000000000000169260c11c674000000000000000169160c01c6780000000000000001690607f190160401b1717171717171717171717171717693627a301d71055774c85026f028f6481ab7f045a5af012a19d003aa919810160801d60020b906fdb2df09e81959a81455e260799a0632f0160801d60020b918282145f14612f44575090505b60c8612f18838361312a565b60020b13612f24575050565b6326c53bb160e21b5f5260020b60045260020b60245260c860445260645ffd5b6001600160a01b0390811690612f5984614140565b1611612f655750612f0c565b9050612f0c565b905081607f031b612d53565b6318521d4960e21b5f9081526001600160a01b0391909116600452602490fd5b90627fffff1981146126cf575f190190612c74565b61070891500760060b15155f612c6e565b639dbd540560e01b5f5260045260018060a01b031660245260445ffd5b9091503d805f833e612fed8183612243565b810160408282031261071b57815167ffffffffffffffff811161071b5782019181601f8401121561071b578251613023816128b8565b936130316040519586612243565b81855260208086019260051b8201019084821161071b57602001915b8183106130d45750505060208101519067ffffffffffffffff821161071b570181601f8201121561071b57805190602080613087846128b8565b6130946040519182612243565b848152019260051b82010192831161071b57602001905b8282106130bc57505050905f612beb565b602080916130c9846122a5565b8152019101906130ab565b82518060060b810361071b5781526020928301920161304d565b825163ffffffff16845286945060209384019390920191600101612bd0565b600291820b910b0390627fffff198212627fffff8313176126cf57565b600282810b9082900b1261314257906125cb9161310d565b6125cb9161310d565b919082018092116126cf57565b80515f9081526006602052604081205580516101608201805190939291613188916001600160a01b031690613dd6565b9261319860c0830194855161314b565b845260608201936131a98551613d3e565b8092845194604081019060018060a01b0382511696602082019360018060a01b03855116908751996132b461010086019182519c608088019d8e5160020b60a08a019c8d5160020b9260018060a01b03895116946101808d019a8b519760646040519e8f906304d14abb60e41b825260018060a01b037f000000000000000000000000000000000000000000000000000000000000000016600483015260018060a01b037f00000000000000000000000000000000000000000000000000000000000000001660248301526044820152015260848d015260a48c015260c48b015260018060a01b031660e48a01526101048901526101248801526101448701526101648601906125ce565b6020846102848173ef2242dc7e8a082ce00c943548e414598896c4f45af4938415610c26575f9461378b575b50518451865160e08701519351945161331d9695613316956113989492936001600160a01b039283169391928992911690613ee4565b96516126c2565b835183519195916001600160a01b03918216919061333c90821661502f565b16808210156137865750805b6001600160a01b031614801561377a5761338a869889925b1561377157889283915b6133778d5160020b614140565b613384875160020b614140565b9161446d565b976001600160801b03891698891561375b5786516040516370a0823160e01b81523060048201529c9d9b9c9a9b906020908c9060249082906001600160a01b03165afa9a8b15610c26575f9b613727575b5086516133f0906001600160a01b03166139d6565b610120870151909c90156134ca575090613417939291518d5160020b865160020b91614508565b61341f614785565b5f19810199908a116126cf5782515f908152600d6020908152604080832087516001600160a01b0390811685529083528184209d909d55925185518352600e825283832087518e1684528252838320805462ffffff1990811662ffffff93841617909155945186518452600f83528484208851909e1684529c90915291902080549092169916989098179097556126a9965b51915190516001600160a01b03908116929116906147bc565b9094506126a99c506136929293915061014086015194519360018060a01b0385511694602081019060018060a01b03825116975f88155f146137125750835b89806136d657505061368d939261037c61366761037c9461367a946001600160801b038b5b6040515f6020820152600b60f81b602182018190526022820152600560fa1b6023820181905260248201526005815299829061356b60258d612243565b61357361290a565b9d604051956020870152604086015216606084015216608082015260a0808201525f60c082015260c081526135a960e082612243565b6135b28a612944565b526135bc89612944565b5060018060a01b038151166040519060208201525f604082015260016060820152606081526135ec608082612243565b6135f58a612965565b526135ff89612965565b5060018060a01b038451166040519060208201525f6040820152600160608201526060815261362f608082612243565b6136388a612975565b5261364289612975565b5051604080516001600160a01b03909216602083015230908201529182906060820190565b61367087612985565b5261364286612985565b61368384612995565b5261043a83612995565b613c48565b806136c8575b81151590816136bd575b506136ae575b506134b1565b6136b7906151ad565b5f6136a8565b90508114155f6136a2565b6136d1816151ad565b613698565b61366761037c9461367a946001600160801b038b61037c958161368d9c9b989e613702575b505061352e565b61370b916150dc565b8f816136fb565b841561350957613722858a6150dc565b613509565b909a506020813d602011613753575b8161374360209383612243565b8101031261071b5751995f6133db565b3d9150613736565b50633df9465560e11b5f5260045260245260445ffd5b8792839161336a565b61338a87988992613360565b613348565b9350916020843d6020116137bb575b816137a760209383612243565b8101031261071b57925192916113986132e0565b3d915061379a565b6001600160a01b03165f818152601060205260409020546137ed575f52601260205260405f205490565b6020602491604051928380926370a0823160e01b82523060048301525afa908115610c26575f9161381c575090565b90506020813d602011613843575b8161383760209383612243565b8101031261071b575190565b3d915061382a565b6040516331a9108f60e11b815260048101919091526020816024817f00000000000000000000000000000000000000000000000000000000000000006001600160a01b03165afa908115610c26575f916138a3575090565b90506020813d6020116138cf575b816138be60209383612243565b8101031261071b576125cb906122a5565b3d91506138b1565b6001600160a01b031690338214158061391e575b6138f3575050565b6084925060405191631326f75560e11b835260048301523360248301526044820152601d6064820152fd5b50604051631a45b42760e11b81523360048201526024810183905260448101829052601d606482015260016084820181905260a482015260208160c4817f00000000000000000000000000000000000000000000000000000000000000006001600160a01b03165afa908115610c26575f9161399c575b50156138eb565b90506020813d6020116139ce575b816139b760209383612243565b8101031261071b576139c890612298565b5f613995565b3d91506139aa565b6001600160a01b031661eeee8114613a17576020602491604051928380926370a0823160e01b82523060048301525afa908115610c26575f9161381c575090565b504790565b9391949290845f52600660205260405f2054908115613b97576040805163ef200d5560e01b8152908180613aa28989878e8e7f00000000000000000000000000000000000000000000000000000000000000007f00000000000000000000000000000000000000000000000000000000000000006001600160a01b031660048901612661565b038173ef2242dc7e8a082ce00c943548e414598896c4f45af4918215610c26576126a9985f925f94613b6e575b5090613b1e91895f52600c60205260405f2060018060a01b0382165f5260205260405f20916040519a613b018c612226565b8b526001600160a01b0390811660208c01521660408a015261251f565b6060880152600290810b60808801520b60a086015260c085015260e08401525f610100840181905260016101208501526101408401526001600160a01b0316610160830152610180820152613158565b613b8e919450613b1e92935060403d604011610789576107788183612243565b93909291613acf565b50505050505050565b6001600160a01b03168015613a17576020602491604051928380926370a0823160e01b82523060048301525afa908115610c26575f9161381c575090565b60018060a01b0360035416603c4201918242116126cf57813b1561071b575f91613c27918360405180968195829463dd46508f60e01b84526040600485015260448401906129a5565b90602483015203925af18015610c2657613c3e5750565b5f6126a991612243565b60035442603c810193916001600160a01b03169084106126cf57803b1561071b575f92613c279260405180968195829463dd46508f60e01b84526040600485015260448401906129a5565b9390831580613d36575b613d2f576001600160a01b03613cb28461502f565b16906001600160a01b038116821115613d28575b6001600160a01b031614928315613d215780935b15613d1a57505b80613cfb575b5081613cf257505050565b6126a99261494a565b835f526006602052613d1260405f2091825461314b565b90555f613ce7565b9050613ce1565b8193613cda565b5080613cc6565b5050505050565b508115613c9d565b602060a0600180821b036002541692206040518281019182526006604082015260408152613d6d606082612243565b519020602460405180948193631e2eaeaf60e01b835260048301525afa908115610c26575f91613da457506001600160a01b031690565b90506020813d602011613dce575b81613dbf60209383612243565b8101031261071b57515f612738565b3d9150613db2565b60405163c6c116bd60e01b8152306004820152602481018290526020816044817f00000000000000000000000000000000000000000000000000000000000000006001600160a01b03165afa908115610c26575f91613eb2575b50815f52601160205260405f205480821115613eaa57613e4f916126c2565b916001600160a01b031690813b1561071b575f9160848392604051948593849263181faefd60e11b845230600485015260248401528760448401523060648401525af18015610c2657613ea0575090565b5f6125cb91612243565b505050505f90565b90506020813d602011613edc575b81613ecd60209383612243565b8101031261071b57515f613e30565b3d9150613ec0565b9495949390916001600160a01b03613efc8487612843565b169081158015614138575b61412d57613f1484614e06565b60405163b31c3c4160e01b81526001600160a01b037f0000000000000000000000000000000000000000000000000000000000000000811660048301527f000000000000000000000000000000000000000000000000000000000000000081166024830152604482018990528681166064830181905295166084820152959890958991613fa59060a48301906125ce565b6020816101c48173ef2242dc7e8a082ce00c943548e414598896c4f45af4908115610c26575f916140fb575b50806140d2575b505090602092915f613fe8614f73565b97614032604051998a96879586946313da831760e01b86523060048701526024860152604485015260648401528c60848401523060a484015260e060c484015260e48301906129a5565b03925af1928315610c26575f9361409c575b5061404e90614e06565b908082111561409457614060916126c2565b8082101561408c5750915b82818110614077575050565b6325a34a5760e11b5f5260045260245260445ffd5b90509161406b565b50505f614060565b9092506020813d6020116140ca575b816140b860209383612243565b8101031261071b57519161404e614044565b3d91506140ab565b6140df6140e49184614e46565b614eeb565b9081116140f2575b80613fd8565b975060206140ec565b90506020813d602011614125575b8161411660209383612243565b8101031261071b57515f613fd1565b3d9150614109565b505f96505050505050565b508015613f07565b60020b908160ff1d82810118620d89e8811161445a5763ffffffff9192600182167001fffcb933bd6fad37aa2d162d1a59400102600160801b18916002811661443e575b60048116614422575b60088116614406575b601081166143ea575b602081166143ce575b604081166143b2575b60808116614396575b610100811661437a575b610200811661435e575b6104008116614342575b6108008116614326575b611000811661430a575b61200081166142ee575b61400081166142d2575b61800081166142b6575b62010000811661429a575b62020000811661427f575b620400008116614264575b620800001661424b575b5f12614243575b0160201c90565b5f190461423c565b6b048a170391f7dc42444e8fa290910260801c90614235565b6d2216e584f5fa1ea926041bedfe9890920260801c9161422b565b916e5d6af8dedb81196699c329225ee6040260801c91614220565b916f09aa508b5b7a84e1c677de54f3e99bc90260801c91614215565b916f31be135f97d08fd981231505542fcfa60260801c9161420a565b916f70d869a156d2a1b890bb3df62baf32f70260801c91614200565b916fa9f746462d870fdf8a65dc1f90e061e50260801c916141f6565b916fd097f3bdfd2022b8845ad8f792aa58250260801c916141ec565b916fe7159475a2c29b7443b29c7fa6e889d90260801c916141e2565b916ff3392b0822b70005940c7a398e4b70f30260801c916141d8565b916ff987a7253ac413176f2b074cf7815e540260801c916141ce565b916ffcbe86c7900a88aedcffc83b479aa3a40260801c916141c4565b916ffe5dee046a99a2a811c461f1969c30530260801c916141ba565b916fff2ea16466c96a3843ec78b326b528610260801c916141b1565b916fff973b41fa98c081472e6896dfb254c00260801c916141a8565b916fffcb9843d60f6159c9db58835c9266440260801c9161419f565b916fffe5caca7e10e4e61c3624eaa0941cd00260801c91614196565b916ffff2e50f5f656932ef12357cf3c7fdcc0260801c9161418d565b916ffff97272373d413259a46990580e213a0260801c91614184565b826345c3193d60e11b5f5260045260245ffd5b936001600160a01b0383811690831611614500575b6001600160a01b038581169590831686116144a35750506125cb935061508f565b919490939192906001600160a01b03821611156144f45782916144ca916144d0959461508f565b93615055565b6001600160801b0381166001600160801b038316105f146144ef575090565b905090565b9150506125cb92615055565b909190614482565b805160208201516001600160a01b03908116979116956146ff959094939092915f886147705750855b898061473957505061368d939261037c926001600160801b03838161367a959a5b604051600160f91b6020820152600b60f81b602182018190526022820152600560fa1b6023820181905260248201526005815298829061459360258c612243565b61459b61290a565b9c604051976145ad60208a018b6121b3565b60020b60c089015260020b60e088015216610100860152166101208401521661014082015230610160820152610180808201525f6101a08201526101a081526145f86101c082612243565b61460187612944565b5261460b86612944565b5060018060a01b038151166040519060208201525f6040820152600160608201526060815261463b608082612243565b61464487612965565b5261464e86612965565b5060018060a01b036020820151166040519060208201525f60408201526001606082015260608152614681608082612243565b61468a87612975565b5261469486612975565b508051604080516001600160a01b03909216602083015230908201526146bd816060810161037c565b6146c687612985565b526146d086612985565b50602090810151604080516001600160a01b039092169282019290925230918101919091529182906060820190565b8061472b575b8115159081614720575b506147175750565b6126a9906151ad565b90508114155f61470f565b614734816151ad565b614705565b926001600160801b03838161368d9897949a61037c978361367a98614760575b5050614552565b614769916150dc565b8e83614759565b861561453157614780878a6150dc565b614531565b600354604051631d5e528f60e21b815290602090829060049082906001600160a01b03165afa908115610c26575f9161381c575090565b94602060249594939792604051968780926370a0823160e01b825230600483015260018060a01b03165afa948515610c26575f956148b8575b506147ff876139d6565b94808211156148af57614811916126c2565b935b808211156148a657614824916126c2565b925b8082111561489d57614837916126c2565b915b808211156148945761484a916126c2565b905b80614875575b508061485d57505050565b6126a9926001600160a01b03811661eeee14926152a3565b825f52600660205261488c60405f2091825461314b565b90555f614852565b50505f9061484c565b50505f91614839565b50505f92614826565b50505f93614813565b9094506020813d6020116148e4575b816148d460209383612243565b8101031261071b5751935f6147f5565b3d91506148c7565b9081526001600160a01b039182166020820152604081019290925290911660608201525f6080820181905260e060a08301819052600690830152654c502046656560d01b61010083015261012060c083018190528201526101400190565b908215614e015760055480840290848204036126cf57612710900461496f81856126c2565b5f91806149d3575b918160a0935f516020615bd25f395f51905f5295936149b7575b604051978852602088015260408701526060860152336080860152600180831b031693a3565b6149ce61eeee600180881b0386161483868a6152a3565b614991565b90600454916149e28584612843565b6001600160a01b0381169384614a185750505050505f516020615bd25f395f51905f529160a0915f86905b919350919350614977565b614a269192939495506127e2565b5f878152600860205260409020549091906001600160a01b031680151580614dee575b614dcf57505f9160018060a01b0316918215159586614d35575b6001600160a01b0388169261eeee8403614c9f5750906020614aa693926004549087808c6040519889958694859363fef4325760e01b85523092600486016148ec565b03925af18015610c265787935f91614c6a575b50965b614b63575b5050915f516020615bd25f395f51905f52959391859360a096614ae6575b5050614a0d565b15614b2957875f52600860205260405f20906001600160601b03871b825416179055865f52600960205260405f20614b1f84825461314b565b90555b5f80614adf565b50865f52600760205260405f20614b4184825461314b565b90556004545f52601160205260405f20614b5c84825461314b565b9055614b22565b838592939896949750819314614c59575b50506040516370a0823160e01b815230600482015290602082602481895afa918215610c26575f92614c25575b5080821115614c1c57614bb3916126c2565b915b614bd483865f526012602052614bcf8360405f20546126c2565b61314b565b855f52601260205260405f2055845f52601060205260405f20948554965f1988019788116126cf575f516020615bd25f395f51905f529760a097559193958193959750614ac1565b50505f91614bb5565b9091506020813d602011614c51575b81614c4160209383612243565b8101031261071b5751905f614ba1565b3d9150614c34565b614c6392506126c2565b825f614b74565b9350506020833d602011614c97575b81614c8660209383612243565b8101031261071b578692515f614ab9565b3d9150614c79565b969291906020614cda91614cb4888b876153a7565b60045490885f8d6040519687958694859363fef4325760e01b85523092600486016148ec565b03925af18015610c265784915f91614cfe575b50614cf990988a61541e565b614abc565b9150506020813d602011614d2d575b81614d1a60209383612243565b8101031261071b57518390614cf9614ced565b3d9150614d0d565b6040516370a0823160e01b8152306004820152909150602081602481875afa908115610c26575f91614d9d575b5090835f52601260205260405f20614d7b86825461314b565b9055835f52601060205260405f20805490600182018092116126cf5755614a63565b90506020813d602011614dc7575b81614db860209383612243565b8101031261071b57515f614d62565b3d9150614dab565b90506315de587f60e01b5f5260045260018060a01b031660245260445ffd5b506001600160a01b038316811415614a49565b505050565b614e0f816139d6565b906001600160a01b03811661eeee14614e4257614e2b906137c3565b80821115614e3c576125cb916126c2565b50505f90565b5090565b91905f905f198185099080850292838084109303928084039314614ed857670de0b6b3a7640000831015614eb65750670de0b6b3a7640000907faccb18165bd6fe31ae1cf318dc5b51eee0e1ba569b88cd74c1773b91fac1066994950990828211900360ee1b910360121c170290565b60649186630c740aef60e31b8352600452602452670de0b6b3a7640000604452fd5b505050670de0b6b3a76400009192500490565b905f5f19606184096061840291828083109203918083039214614f69576064821015614f4d5750606460617f5c28f5c28f5c28f5c28f5c28f5c28f5c28f5c28f5c28f5c28f5c28f5c28f5c2994950990828211900360fe1b910360021c170290565b60649085630c740aef60e31b8252600452606160245281604452fd5b5050606490049150565b5f546001600160a01b0381161561501a576040516125cb91614f96602083612243565b5f825260405190614fa8604083612243565b600782526618d85cda13dd5d60ca1b602092830152604080515f9381019390935260018382015282529091606091821b6bffffffffffffffffffffffff19167310d629fe9be3073a98bda02aa1e4a81d4ad5a7c760631b186001600160e01b031916916150159084612243565b6154ee565b50604051615029602082612243565b5f815290565b6001600160a01b03811661eeee0361505057505f5b6001600160a01b031690565b615044565b6125cb926150849290916001600160a01b0380831690821611615089575b90036001600160a01b03169061596f565b615ac2565b90615073565b6125cb92615084929091906001600160a01b03808216908316116150d6575b6150c46001600160a01b038281169084166159f9565b9190036001600160a01b031691615a42565b906150ae565b6001600160a01b03908116907f0000000000000000000000000000000000000000000000000000000000000000166151158382846153a7565b6001600160a01b03831161518d5760035490603c4201928342116126cf57813b1561071b575f60849265ffffffffffff829660405198899788966387517c4560e01b8852600488015260018060a01b0316602487015260018060a01b031660448601521660648401525af18015610c2657613c3e5750565b50630e0b51ef60e11b5f5260045260245260018060a01b0360445260645ffd5b6003545f917f00000000000000000000000000000000000000000000000000000000000000006001600160a01b031690813b1561071b576040516387517c4560e01b81526001600160a01b03918216600482018190529390911660248201525f60448201819052600160648301528160848183865af18015610c265761528e575b5061523a838284615ae5565b1561524457505050565b61524e8183615b32565b1561527a578261525e9183615b96565b15615267575050565b635274afe760e01b825260045260249150fd5b635274afe760e01b83526004829052602483fd5b61529b9193505f90612243565b5f915f61522e565b9192909280156153a1576152b78484612843565b926001600160a01b03841691821561537e5783159384615365575b1561535f57805b833b1561071b575f92610104916040519586948593639e6eec0560e01b8552600485015260018060a01b038b166024850152604484015285606484015260c060848401528560c484015260e060a48401528560e48401525af18015610c265761534f575b50615346575050565b6126a99161541e565b5f61535991612243565b5f61533d565b5f6152d9565b61537982876001600160a01b038a166153a7565b6152d2565b63283ecc9960e01b5f90815260048390526001600160a01b038716602452604490fd5b50505050565b91906153b4828285615ae5565b156153be57505050565b6153c88184615b32565b1561540057906153d89183615b96565b156153e05750565b635274afe760e01b5f9081526001600160a01b0391909116600452602490fd5b635274afe760e01b5f9081526001600160a01b038416600452602490fd5b604051636eb1769f60e11b81523060048201526001600160a01b03838116602483015290929116602083604481845afa928315610c26575f93615487575b508261546757505050565b63620e174b60e11b5f5260045260018060a01b031660245260445260645ffd5b9092506020813d6020116154b3575b816154a360209383612243565b8101031261071b5751915f61545c565b3d9150615496565b6020815191015190602081106154cf575090565b5f199060200360031b1b1690565b908151811015612951570160200190565b9192909260609381516020811061595d57506020845111156158e75760258451106158ce578351602410156129515760448401518060f81c905f198201968288116126cf575f91611fe0805f9260f31c1616938085046020149015171592836126cf575f1985018581116126cf578a15602060058d901b9c8d041417159a5f19810191908211908c5b6126cf57816126cf57828111156158bc576001600160f81b031961559b828e6154dd565b51166155b05780156126cf575f19018c615577565b9798999a9b5050505050506155c583886154dd565b51875160f882901c9160f31c611fe016821560208483041417156126cf576155ec916126c2565b60051c906001850180861190816126cf57604080518881018201601f1916909152818152908b5f5b8281106158a65750508197600581018091116126cf57866126cf57871115615819575b505050906156449161314b565b60ff811161580257600560206156969260405197889183808401998051918291018b5e83019163ffffffff60e01b168483015260ff60f81b9060f81b1660248201520301601a19810187520185612243565b8351601f166157cc5783515b84526126cf57808651039060405196601f19603f848a010116604052828852015f5b8281106157b7575050506157089060208060405197889382850196518091885e8401908282015f8152815193849201905e01015f815203601f198101865285612243565b8351601f166157845760208061574d93865180975b52866040519788958487015e8401908282015f8152815193849201905e01015f815203601f198101845283612243565b81601f815116155f1461575d5750565b805160051c600181018091116126cf578060051b90808204602014901517156126cf579052565b835160051c91600183018093116126cf578260051b92808404602014901517156126cf576020809161574d94809761571d565b80602080928401015182828b010152016156c4565b835160051c600181018091116126cf578060051b908082046020149015176156a257634e487b7160e01b5f52601160045260245ffd5b631f1a544360e31b5f5260045260ff60245260445ffd5b8260249c9a989694939c9b999795929b905b6126cf578181101561588357615841818c6154dd565b5160f81c600181018091116126cf5760ff81116158025760f81b6001600160f81b0319165f1a615871828e6154dd565b53600581018091116126cf578c61582b565b505091939597995091939597505f1982146126cf57906001016156445f80615637565b6020818193010151828286010152018c90615614565b5050506156449295969798995061314b565b835163d4e1560560e01b5f52600452602560245260445ffd5b602061592d6158fb6125cb959794966154bb565b6040516001600160e01b031990941683850152600160f91b60248501526005845292615928602582612243565b6154bb565b946040519586938385015260408401528051918291018484015e81015f838201520301601f198101835282612243565b634c84276360e01b5f5260045260245ffd5b90606082901b905f19600160601b84099282808510940393808503948584111561071b57146159f2578190600160601b900981805f03168092046002816003021880820260020302808202600203028082026002030280820260020302808202600203028091026002030293600183805f03040190848311900302920304170290565b5091500490565b81810291905f1982820991838084109303928084039384600160601b111561071b5714615a3957600160601b910990828211900360a01b910360601c1790565b50505060601c90565b91818302915f198185099383808610950394808603958685111561071b5714615aba579082910981805f03168092046002816003021880820260020302808202600203028082026002030280820260020302808202600203028091026002030293600183805f03040190848311900302920304170290565b505091500490565b906001600160801b038216809203615ad657565b6393dafdf160e01b5f5260045ffd5b92916040519163095ea7b360e01b5f5260018060a01b031660045260245260205f60448180875af19260015f5114841615615b21575b50604052565b3d15903b151516909216915f615b1b565b60405163095ea7b360e01b5f9081526001600160a01b03909316600452602483905290929160209060448180875af19260015f5114841615615b745750604052565b60018492941516615b8d573b15153d151616915f615b1b565b833d5f823e3d90fd5b92916040519163095ea7b360e01b5f5260018060a01b031660045260245260205f60448180875af19260015f5114841615615b74575060405256fe799fc5c9aa18f6919621cc3591d51e19da1a23afbc8023f54528f632f790b5c8a164736f6c634300081c000a",
	"gitCommit": "npm:@bananapus/univ4-lp-split-hook-v6@1.0.0",
	"gitDirty": false,
	"history": []
}