{
	"format": "sphinx-sol-ct-artifact-1",
	"address": "0x1b79a25ee77a79469f20c98fa410f85f6027f4cf",
	"sourceName": "node_modules/@bananapus/univ4-lp-split-hook-v6/src/JBUniswapV4LPSplitHookDeployer.sol",
	"contractName": "JBUniswapV4LPSplitHookDeployer",
	"chainId": "0x14a34",
	"abi": [
		{
			"type": "constructor",
			"inputs": [
				{
					"name": "addressRegistry",
					"type": "address",
					"internalType": "contract IJBAddressRegistry"
				},
				{
					"name": "newHookImplementation",
					"type": "address",
					"internalType": "contract JBUniswapV4LPSplitHook"
				},
				{
					"name": "deployer",
					"type": "address",
					"internalType": "address"
				}
			],
			"stateMutability": "nonpayable"
		},
		{
			"type": "function",
			"name": "ADDRESS_REGISTRY",
			"inputs": [],
			"outputs": [
				{
					"name": "",
					"type": "address",
					"internalType": "contract IJBAddressRegistry"
				}
			],
			"stateMutability": "view"
		},
		{
			"type": "function",
			"name": "deployHookFor",
			"inputs": [
				{
					"name": "feeProjectId",
					"type": "uint256",
					"internalType": "uint256"
				},
				{
					"name": "feePercent",
					"type": "uint256",
					"internalType": "uint256"
				},
				{
					"name": "buybackHook",
					"type": "address",
					"internalType": "contract IJBBuybackHookRegistry"
				},
				{
					"name": "salt",
					"type": "bytes32",
					"internalType": "bytes32"
				}
			],
			"outputs": [
				{
					"name": "hook",
					"type": "address",
					"internalType": "contract IJBUniswapV4LPSplitHook"
				}
			],
			"stateMutability": "nonpayable"
		},
		{
			"type": "function",
			"name": "hookImplementation",
			"inputs": [],
			"outputs": [
				{
					"name": "",
					"type": "address",
					"internalType": "contract JBUniswapV4LPSplitHook"
				}
			],
			"stateMutability": "view"
		},
		{
			"type": "function",
			"name": "oracleHook",
			"inputs": [],
			"outputs": [
				{
					"name": "",
					"type": "address",
					"internalType": "contract IHooks"
				}
			],
			"stateMutability": "view"
		},
		{
			"type": "function",
			"name": "poolManager",
			"inputs": [],
			"outputs": [
				{
					"name": "",
					"type": "address",
					"internalType": "contract IPoolManager"
				}
			],
			"stateMutability": "view"
		},
		{
			"type": "function",
			"name": "positionManager",
			"inputs": [],
			"outputs": [
				{
					"name": "",
					"type": "address",
					"internalType": "contract IPositionManager"
				}
			],
			"stateMutability": "view"
		},
		{
			"type": "function",
			"name": "setChainSpecificConstants",
			"inputs": [
				{
					"name": "newPoolManager",
					"type": "address",
					"internalType": "contract IPoolManager"
				},
				{
					"name": "newPositionManager",
					"type": "address",
					"internalType": "contract IPositionManager"
				},
				{
					"name": "newOracleHook",
					"type": "address",
					"internalType": "contract IHooks"
				}
			],
			"outputs": [],
			"stateMutability": "nonpayable"
		},
		{
			"type": "event",
			"name": "HookDeployed",
			"inputs": [
				{
					"name": "feeProjectId",
					"type": "uint256",
					"indexed": true,
					"internalType": "uint256"
				},
				{
					"name": "feePercent",
					"type": "uint256",
					"indexed": false,
					"internalType": "uint256"
				},
				{
					"name": "hook",
					"type": "address",
					"indexed": false,
					"internalType": "contract IJBUniswapV4LPSplitHook"
				},
				{
					"name": "caller",
					"type": "address",
					"indexed": false,
					"internalType": "address"
				}
			],
			"anonymous": false
		},
		{
			"type": "error",
			"name": "JBUniswapV4LPSplitHookDeployer_AlreadyConfigured",
			"inputs": []
		},
		{
			"type": "error",
			"name": "JBUniswapV4LPSplitHookDeployer_NotConfigured",
			"inputs": []
		},
		{
			"type": "error",
			"name": "JBUniswapV4LPSplitHookDeployer_Unauthorized",
			"inputs": [
				{
					"name": "caller",
					"type": "address",
					"internalType": "address"
				}
			]
		}
	],
	"args": [
		"0x581bFD1eAD279E0a27B736e49494db3a7d85993C",
		"0xaf2d8A027955871Cd2F3c4D2f32338e574E69bC0",
		"0x4dc161eF837fF1C4485b08DDFcDB182F2157bE18"
	],
	"solcInputHash": "060d4ff4bbe9c25471dae2eb285f0da0",
	"bytecode": "0x60e0346100d057601f6107bb38819003918201601f19168301916001600160401b038311848410176100d4578084926060946040528339810103126100d05780516001600160a01b03811681036100d0576020820151916001600160a01b03831683036100d05760400151906001600160a01b03821682036100d05760805260a05260c0526040516106d290816100e982396080518181816101dd0152818161028501526105f7015260a051816104fa015260c05181818160cb015281816102e60152818161043e01526106600152f35b5f80fd5b634e487b7160e01b5f52604160045260245ffdfe6080806040526004361015610012575f80fd5b5f905f3560e01c90816304ea56ae1461064e57508063791b98bc1461062657806389a56bbc146105e25780639785f1ed146105bb578063dc4c90d314610593578063ec659b0c146104a75763fe65c5ff1461006b575f80fd5b346103f85760803660031901126103f8576044356001600160a01b0381169060043590602435908390036103f85760015460643592906001600160a01b031615610498578215918215610409576c5af43d3d93803e602a57fd5bf36021527f00000000000000000000000000000000000000000000000000000000000000006001600160a01b031660145273602c3d8160093d39f33d3d3d3d363d3d37363d735f908152603590600c90f080156103fc575f6021525b6001546002545f546001600160a01b0393841698928416939081169116883b156103f85760405193630439478560e21b855286600486015285602486015260448501526064840152608483015260a48201525f8160c481838a5af180156103ed576103d7575b5060607fe62ff7b546ab78a8c826ddb34f23996bd2eb26c8042818823c97adf4c9c09edb91604051908152866020820152336040820152a26003545f1981146103c35760010160035515610270575060035482907f00000000000000000000000000000000000000000000000000000000000000006001600160a01b0316803b1561026c5760448392604051948593849263b94417ab60e01b845230600485015260248401525af1801561026157610248575b50602091505b604051908152f35b61025383809261068f565b61025d578161023a565b5080fd5b6040513d85823e3d90fd5b8280fd5b604080513360208201908152918101929092527f00000000000000000000000000000000000000000000000000000000000000006001600160a01b0316918491906102c881606081015b03601f19810183528261068f565b519020604080516c5af43d3d93803e602a57fd5bf360581b818301527f00000000000000000000000000000000000000000000000000000000000000006001600160a01b0316602882015273602c3d8160093d39f33d3d3d3d363d3d37363d736014820152603581526060810191829052909390813b156103bf57838593918492636d1e458560e11b84523060648301526084820152606060a482015260e48151918260c482015282602082018383015e83828483010152605f1992601f80199101168101030101925af18015610261576103a8575b5060209150610240565b826103b29161068f565b815f1261025d578161039e565b8380fd5b634e487b7160e01b85526011600452602485fd5b6103e49196505f9061068f565b5f946060610187565b6040513d5f823e3d90fd5b5f80fd5b63301164255f526004601cfd5b60408051336020820190815291810186905261042881606081016102ba565b5190206c5af43d3d93803e602a57fd5bf36021527f00000000000000000000000000000000000000000000000000000000000000006001600160a01b031660145273602c3d8160093d39f33d3d3d3d363d3d37363d735f908152603590600c90f580156103fc575f602152610121565b63e6edd28160e01b5f5260045ffd5b346103f85760603660031901126103f8576004356001600160a01b038116908190036103f8576024356001600160a01b038116908190036103f8576044356001600160a01b03811692908390036103f8577f00000000000000000000000000000000000000000000000000000000000000006001600160a01b03163303610580576001546001600160a01b038116610571576001600160601b0360a01b16176001556001600160601b0360a01b60025416176002556001600160601b0360a01b5f5416175f555f80f35b6338c9ef5b60e11b5f5260045ffd5b63ae291feb60e01b5f523360045260245ffd5b346103f8575f3660031901126103f8576001546040516001600160a01b039091168152602090f35b346103f8575f3660031901126103f8575f546040516001600160a01b039091168152602090f35b346103f8575f3660031901126103f8576040517f00000000000000000000000000000000000000000000000000000000000000006001600160a01b03168152602090f35b346103f8575f3660031901126103f8576002546040516001600160a01b039091168152602090f35b346103f8575f3660031901126103f8577f00000000000000000000000000000000000000000000000000000000000000006001600160a01b03168152602090f35b90601f8019910116810190811067ffffffffffffffff8211176106b157604052565b634e487b7160e01b5f52604160045260245ffdfea164736f6c634300081c000a",
	"gitCommit": "npm:@bananapus/univ4-lp-split-hook-v6@1.1.1",
	"gitDirty": false,
	"history": []
}