{
	"format": "sphinx-sol-ct-artifact-1",
	"address": "0x926b43a6d12479ed484f12e02855966aeb60acfb",
	"sourceName": "node_modules/@bananapus/univ4-lp-split-hook-v6/src/JBUniswapV4LPSplitHook.sol",
	"contractName": "JBUniswapV4LPSplitHook",
	"chainId": "0x14a34",
	"abi": [
		{
			"type": "constructor",
			"inputs": [
				{
					"name": "directory",
					"type": "address",
					"internalType": "address"
				},
				{
					"name": "permissions",
					"type": "address",
					"internalType": "contract IJBPermissions"
				},
				{
					"name": "tokens",
					"type": "address",
					"internalType": "address"
				},
				{
					"name": "permit2",
					"type": "address",
					"internalType": "contract IAllowanceTransfer"
				},
				{
					"name": "suckerRegistry",
					"type": "address",
					"internalType": "contract IJBSuckerRegistry"
				}
			],
			"stateMutability": "nonpayable"
		},
		{
			"type": "receive",
			"stateMutability": "payable"
		},
		{
			"type": "function",
			"name": "BPS",
			"inputs": [],
			"outputs": [
				{
					"name": "",
					"type": "uint256",
					"internalType": "uint256"
				}
			],
			"stateMutability": "view"
		},
		{
			"type": "function",
			"name": "DIRECTORY",
			"inputs": [],
			"outputs": [
				{
					"name": "",
					"type": "address",
					"internalType": "address"
				}
			],
			"stateMutability": "view"
		},
		{
			"type": "function",
			"name": "PERMISSIONS",
			"inputs": [],
			"outputs": [
				{
					"name": "",
					"type": "address",
					"internalType": "contract IJBPermissions"
				}
			],
			"stateMutability": "view"
		},
		{
			"type": "function",
			"name": "PERMIT2",
			"inputs": [],
			"outputs": [
				{
					"name": "",
					"type": "address",
					"internalType": "contract IAllowanceTransfer"
				}
			],
			"stateMutability": "view"
		},
		{
			"type": "function",
			"name": "POOL_FEE",
			"inputs": [],
			"outputs": [
				{
					"name": "",
					"type": "uint24",
					"internalType": "uint24"
				}
			],
			"stateMutability": "view"
		},
		{
			"type": "function",
			"name": "PROJECTS",
			"inputs": [],
			"outputs": [
				{
					"name": "",
					"type": "address",
					"internalType": "contract IJBProjects"
				}
			],
			"stateMutability": "view"
		},
		{
			"type": "function",
			"name": "SUCKER_REGISTRY",
			"inputs": [],
			"outputs": [
				{
					"name": "",
					"type": "address",
					"internalType": "contract IJBSuckerRegistry"
				}
			],
			"stateMutability": "view"
		},
		{
			"type": "function",
			"name": "TICK_SPACING",
			"inputs": [],
			"outputs": [
				{
					"name": "",
					"type": "int24",
					"internalType": "int24"
				}
			],
			"stateMutability": "view"
		},
		{
			"type": "function",
			"name": "TOKENS",
			"inputs": [],
			"outputs": [
				{
					"name": "",
					"type": "address",
					"internalType": "address"
				}
			],
			"stateMutability": "view"
		},
		{
			"type": "function",
			"name": "accumulatedProjectTokens",
			"inputs": [
				{
					"name": "projectId",
					"type": "uint256",
					"internalType": "uint256"
				}
			],
			"outputs": [
				{
					"name": "accumulatedProjectTokens",
					"type": "uint256",
					"internalType": "uint256"
				}
			],
			"stateMutability": "view"
		},
		{
			"type": "function",
			"name": "activeTickLowerOf",
			"inputs": [
				{
					"name": "projectId",
					"type": "uint256",
					"internalType": "uint256"
				},
				{
					"name": "terminalToken",
					"type": "address",
					"internalType": "address"
				}
			],
			"outputs": [
				{
					"name": "tickLower",
					"type": "int24",
					"internalType": "int24"
				}
			],
			"stateMutability": "view"
		},
		{
			"type": "function",
			"name": "activeTickUpperOf",
			"inputs": [
				{
					"name": "projectId",
					"type": "uint256",
					"internalType": "uint256"
				},
				{
					"name": "terminalToken",
					"type": "address",
					"internalType": "address"
				}
			],
			"outputs": [
				{
					"name": "tickUpper",
					"type": "int24",
					"internalType": "int24"
				}
			],
			"stateMutability": "view"
		},
		{
			"type": "function",
			"name": "addLiquidity",
			"inputs": [
				{
					"name": "projectId",
					"type": "uint256",
					"internalType": "uint256"
				},
				{
					"name": "terminalToken",
					"type": "address",
					"internalType": "address"
				},
				{
					"name": "minCashOutReturn",
					"type": "uint256",
					"internalType": "uint256"
				}
			],
			"outputs": [],
			"stateMutability": "nonpayable"
		},
		{
			"type": "function",
			"name": "buybackHook",
			"inputs": [],
			"outputs": [
				{
					"name": "",
					"type": "address",
					"internalType": "contract IJBBuybackHookRegistry"
				}
			],
			"stateMutability": "view"
		},
		{
			"type": "function",
			"name": "claimFeeTokensFor",
			"inputs": [
				{
					"name": "projectId",
					"type": "uint256",
					"internalType": "uint256"
				},
				{
					"name": "beneficiary",
					"type": "address",
					"internalType": "address"
				}
			],
			"outputs": [],
			"stateMutability": "nonpayable"
		},
		{
			"type": "function",
			"name": "claimableFeeCredits",
			"inputs": [
				{
					"name": "projectId",
					"type": "uint256",
					"internalType": "uint256"
				}
			],
			"outputs": [
				{
					"name": "claimableFeeCredits",
					"type": "uint256",
					"internalType": "uint256"
				}
			],
			"stateMutability": "view"
		},
		{
			"type": "function",
			"name": "claimableFeeTokenOf",
			"inputs": [
				{
					"name": "projectId",
					"type": "uint256",
					"internalType": "uint256"
				}
			],
			"outputs": [
				{
					"name": "claimToken",
					"type": "address",
					"internalType": "address"
				}
			],
			"stateMutability": "view"
		},
		{
			"type": "function",
			"name": "claimableFeeTokens",
			"inputs": [
				{
					"name": "projectId",
					"type": "uint256",
					"internalType": "uint256"
				}
			],
			"outputs": [
				{
					"name": "claimableFeeTokens",
					"type": "uint256",
					"internalType": "uint256"
				}
			],
			"stateMutability": "view"
		},
		{
			"type": "function",
			"name": "collectAndRouteLPFees",
			"inputs": [
				{
					"name": "projectId",
					"type": "uint256",
					"internalType": "uint256"
				},
				{
					"name": "terminalToken",
					"type": "address",
					"internalType": "address"
				}
			],
			"outputs": [],
			"stateMutability": "nonpayable"
		},
		{
			"type": "function",
			"name": "deployPool",
			"inputs": [
				{
					"name": "projectId",
					"type": "uint256",
					"internalType": "uint256"
				},
				{
					"name": "minCashOutReturn",
					"type": "uint256",
					"internalType": "uint256"
				}
			],
			"outputs": [],
			"stateMutability": "nonpayable"
		},
		{
			"type": "function",
			"name": "feePercent",
			"inputs": [],
			"outputs": [
				{
					"name": "",
					"type": "uint256",
					"internalType": "uint256"
				}
			],
			"stateMutability": "view"
		},
		{
			"type": "function",
			"name": "feeProjectId",
			"inputs": [],
			"outputs": [
				{
					"name": "",
					"type": "uint256",
					"internalType": "uint256"
				}
			],
			"stateMutability": "view"
		},
		{
			"type": "function",
			"name": "hasDeployedPool",
			"inputs": [
				{
					"name": "projectId",
					"type": "uint256",
					"internalType": "uint256"
				}
			],
			"outputs": [
				{
					"name": "hasDeployedPool",
					"type": "bool",
					"internalType": "bool"
				}
			],
			"stateMutability": "view"
		},
		{
			"type": "function",
			"name": "initialWeightOf",
			"inputs": [
				{
					"name": "projectId",
					"type": "uint256",
					"internalType": "uint256"
				}
			],
			"outputs": [
				{
					"name": "weight",
					"type": "uint256",
					"internalType": "uint256"
				}
			],
			"stateMutability": "view"
		},
		{
			"type": "function",
			"name": "initialize",
			"inputs": [
				{
					"name": "initialFeeProjectId",
					"type": "uint256",
					"internalType": "uint256"
				},
				{
					"name": "initialFeePercent",
					"type": "uint256",
					"internalType": "uint256"
				},
				{
					"name": "newPoolManager",
					"type": "address",
					"internalType": "contract IPoolManager"
				},
				{
					"name": "newPositionManager",
					"type": "address",
					"internalType": "contract IPositionManager"
				},
				{
					"name": "newOracleHook",
					"type": "address",
					"internalType": "contract IHooks"
				},
				{
					"name": "newBuybackHook",
					"type": "address",
					"internalType": "contract IJBBuybackHookRegistry"
				}
			],
			"outputs": [],
			"stateMutability": "nonpayable"
		},
		{
			"type": "function",
			"name": "isPoolDeployed",
			"inputs": [
				{
					"name": "projectId",
					"type": "uint256",
					"internalType": "uint256"
				},
				{
					"name": "terminalToken",
					"type": "address",
					"internalType": "address"
				}
			],
			"outputs": [
				{
					"name": "deployed",
					"type": "bool",
					"internalType": "bool"
				}
			],
			"stateMutability": "view"
		},
		{
			"type": "function",
			"name": "oracleHook",
			"inputs": [],
			"outputs": [
				{
					"name": "",
					"type": "address",
					"internalType": "contract IHooks"
				}
			],
			"stateMutability": "view"
		},
		{
			"type": "function",
			"name": "poolKeyOf",
			"inputs": [
				{
					"name": "projectId",
					"type": "uint256",
					"internalType": "uint256"
				},
				{
					"name": "terminalToken",
					"type": "address",
					"internalType": "address"
				}
			],
			"outputs": [
				{
					"name": "key",
					"type": "tuple",
					"internalType": "struct PoolKey",
					"components": [
						{
							"name": "currency0",
							"type": "address",
							"internalType": "Currency"
						},
						{
							"name": "currency1",
							"type": "address",
							"internalType": "Currency"
						},
						{
							"name": "fee",
							"type": "uint24",
							"internalType": "uint24"
						},
						{
							"name": "tickSpacing",
							"type": "int24",
							"internalType": "int24"
						},
						{
							"name": "hooks",
							"type": "address",
							"internalType": "contract IHooks"
						}
					]
				}
			],
			"stateMutability": "view"
		},
		{
			"type": "function",
			"name": "poolKeysOf",
			"inputs": [
				{
					"name": "projectId",
					"type": "uint256",
					"internalType": "uint256"
				},
				{
					"name": "terminalToken",
					"type": "address",
					"internalType": "address"
				}
			],
			"outputs": [
				{
					"name": "currency0",
					"type": "address",
					"internalType": "Currency"
				},
				{
					"name": "currency1",
					"type": "address",
					"internalType": "Currency"
				},
				{
					"name": "fee",
					"type": "uint24",
					"internalType": "uint24"
				},
				{
					"name": "tickSpacing",
					"type": "int24",
					"internalType": "int24"
				},
				{
					"name": "hooks",
					"type": "address",
					"internalType": "contract IHooks"
				}
			],
			"stateMutability": "view"
		},
		{
			"type": "function",
			"name": "poolManager",
			"inputs": [],
			"outputs": [
				{
					"name": "",
					"type": "address",
					"internalType": "contract IPoolManager"
				}
			],
			"stateMutability": "view"
		},
		{
			"type": "function",
			"name": "positionManager",
			"inputs": [],
			"outputs": [
				{
					"name": "",
					"type": "address",
					"internalType": "contract IPositionManager"
				}
			],
			"stateMutability": "view"
		},
		{
			"type": "function",
			"name": "processSplitWith",
			"inputs": [
				{
					"name": "context",
					"type": "tuple",
					"internalType": "struct JBSplitHookContext",
					"components": [
						{
							"name": "token",
							"type": "address",
							"internalType": "address"
						},
						{
							"name": "amount",
							"type": "uint256",
							"internalType": "uint256"
						},
						{
							"name": "decimals",
							"type": "uint256",
							"internalType": "uint256"
						},
						{
							"name": "projectId",
							"type": "uint256",
							"internalType": "uint256"
						},
						{
							"name": "groupId",
							"type": "uint256",
							"internalType": "uint256"
						},
						{
							"name": "split",
							"type": "tuple",
							"internalType": "struct JBSplit",
							"components": [
								{
									"name": "percent",
									"type": "uint32",
									"internalType": "uint32"
								},
								{
									"name": "projectId",
									"type": "uint64",
									"internalType": "uint64"
								},
								{
									"name": "beneficiary",
									"type": "address",
									"internalType": "address payable"
								},
								{
									"name": "preferAddToBalance",
									"type": "bool",
									"internalType": "bool"
								},
								{
									"name": "lockedUntil",
									"type": "uint48",
									"internalType": "uint48"
								},
								{
									"name": "hook",
									"type": "address",
									"internalType": "contract IJBSplitHook"
								}
							]
						}
					]
				}
			],
			"outputs": [],
			"stateMutability": "payable"
		},
		{
			"type": "function",
			"name": "rebalanceLiquidity",
			"inputs": [
				{
					"name": "projectId",
					"type": "uint256",
					"internalType": "uint256"
				},
				{
					"name": "terminalToken",
					"type": "address",
					"internalType": "address"
				},
				{
					"name": "decreaseAmount0Min",
					"type": "uint256",
					"internalType": "uint256"
				},
				{
					"name": "decreaseAmount1Min",
					"type": "uint256",
					"internalType": "uint256"
				}
			],
			"outputs": [],
			"stateMutability": "nonpayable"
		},
		{
			"type": "function",
			"name": "supportsInterface",
			"inputs": [
				{
					"name": "interfaceId",
					"type": "bytes4",
					"internalType": "bytes4"
				}
			],
			"outputs": [
				{
					"name": "",
					"type": "bool",
					"internalType": "bool"
				}
			],
			"stateMutability": "pure"
		},
		{
			"type": "function",
			"name": "tokenIdOf",
			"inputs": [
				{
					"name": "projectId",
					"type": "uint256",
					"internalType": "uint256"
				},
				{
					"name": "terminalToken",
					"type": "address",
					"internalType": "address"
				}
			],
			"outputs": [
				{
					"name": "tokenId",
					"type": "uint256",
					"internalType": "uint256"
				}
			],
			"stateMutability": "view"
		},
		{
			"type": "event",
			"name": "FeeTokensClaimed",
			"inputs": [
				{
					"name": "projectId",
					"type": "uint256",
					"indexed": true,
					"internalType": "uint256"
				},
				{
					"name": "beneficiary",
					"type": "address",
					"indexed": true,
					"internalType": "address"
				},
				{
					"name": "amount",
					"type": "uint256",
					"indexed": false,
					"internalType": "uint256"
				},
				{
					"name": "caller",
					"type": "address",
					"indexed": false,
					"internalType": "address"
				}
			],
			"anonymous": false
		},
		{
			"type": "event",
			"name": "LPFeesRouted",
			"inputs": [
				{
					"name": "projectId",
					"type": "uint256",
					"indexed": true,
					"internalType": "uint256"
				},
				{
					"name": "terminalToken",
					"type": "address",
					"indexed": true,
					"internalType": "address"
				},
				{
					"name": "totalAmount",
					"type": "uint256",
					"indexed": false,
					"internalType": "uint256"
				},
				{
					"name": "feeAmount",
					"type": "uint256",
					"indexed": false,
					"internalType": "uint256"
				},
				{
					"name": "remainingAmount",
					"type": "uint256",
					"indexed": false,
					"internalType": "uint256"
				},
				{
					"name": "feeTokensMinted",
					"type": "uint256",
					"indexed": false,
					"internalType": "uint256"
				},
				{
					"name": "caller",
					"type": "address",
					"indexed": false,
					"internalType": "address"
				}
			],
			"anonymous": false
		},
		{
			"type": "event",
			"name": "LiquidityAdded",
			"inputs": [
				{
					"name": "projectId",
					"type": "uint256",
					"indexed": true,
					"internalType": "uint256"
				},
				{
					"name": "terminalToken",
					"type": "address",
					"indexed": true,
					"internalType": "address"
				},
				{
					"name": "tokenId",
					"type": "uint256",
					"indexed": true,
					"internalType": "uint256"
				},
				{
					"name": "isNewPosition",
					"type": "bool",
					"indexed": false,
					"internalType": "bool"
				},
				{
					"name": "caller",
					"type": "address",
					"indexed": false,
					"internalType": "address"
				}
			],
			"anonymous": false
		},
		{
			"type": "event",
			"name": "ProjectDeployed",
			"inputs": [
				{
					"name": "projectId",
					"type": "uint256",
					"indexed": true,
					"internalType": "uint256"
				},
				{
					"name": "terminalToken",
					"type": "address",
					"indexed": true,
					"internalType": "address"
				},
				{
					"name": "poolId",
					"type": "bytes32",
					"indexed": true,
					"internalType": "bytes32"
				},
				{
					"name": "caller",
					"type": "address",
					"indexed": false,
					"internalType": "address"
				}
			],
			"anonymous": false
		},
		{
			"type": "error",
			"name": "JBMetadataResolver_DataNotPadded",
			"inputs": [
				{
					"name": "dataLength",
					"type": "uint256",
					"internalType": "uint256"
				}
			]
		},
		{
			"type": "error",
			"name": "JBMetadataResolver_MetadataTooLong",
			"inputs": [
				{
					"name": "offset",
					"type": "uint256",
					"internalType": "uint256"
				},
				{
					"name": "maxOffset",
					"type": "uint256",
					"internalType": "uint256"
				}
			]
		},
		{
			"type": "error",
			"name": "JBMetadataResolver_MetadataTooShort",
			"inputs": [
				{
					"name": "metadataLength",
					"type": "uint256",
					"internalType": "uint256"
				},
				{
					"name": "minMetadataLength",
					"type": "uint256",
					"internalType": "uint256"
				}
			]
		},
		{
			"type": "error",
			"name": "JBPermissioned_Unauthorized",
			"inputs": [
				{
					"name": "account",
					"type": "address",
					"internalType": "address"
				},
				{
					"name": "sender",
					"type": "address",
					"internalType": "address"
				},
				{
					"name": "projectId",
					"type": "uint256",
					"internalType": "uint256"
				},
				{
					"name": "permissionId",
					"type": "uint256",
					"internalType": "uint256"
				}
			]
		},
		{
			"type": "error",
			"name": "JBUniswapV4LPSplitHook_AlreadyInitialized",
			"inputs": []
		},
		{
			"type": "error",
			"name": "JBUniswapV4LPSplitHook_ExistingPoolPriceOutOfBounds",
			"inputs": [
				{
					"name": "existingPrice",
					"type": "uint160",
					"internalType": "uint160"
				},
				{
					"name": "lowerBound",
					"type": "uint160",
					"internalType": "uint160"
				},
				{
					"name": "upperBound",
					"type": "uint160",
					"internalType": "uint160"
				}
			]
		},
		{
			"type": "error",
			"name": "JBUniswapV4LPSplitHook_FeePercentWithoutFeeProject",
			"inputs": [
				{
					"name": "feePercent",
					"type": "uint256",
					"internalType": "uint256"
				},
				{
					"name": "feeProjectId",
					"type": "uint256",
					"internalType": "uint256"
				}
			]
		},
		{
			"type": "error",
			"name": "JBUniswapV4LPSplitHook_InsufficientBalance",
			"inputs": [
				{
					"name": "available",
					"type": "uint256",
					"internalType": "uint256"
				},
				{
					"name": "required",
					"type": "uint256",
					"internalType": "uint256"
				}
			]
		},
		{
			"type": "error",
			"name": "JBUniswapV4LPSplitHook_InsufficientLiquidity",
			"inputs": [
				{
					"name": "liquidity",
					"type": "uint128",
					"internalType": "uint128"
				}
			]
		},
		{
			"type": "error",
			"name": "JBUniswapV4LPSplitHook_InvalidFeePercent",
			"inputs": [
				{
					"name": "feePercent",
					"type": "uint256",
					"internalType": "uint256"
				},
				{
					"name": "maxFeePercent",
					"type": "uint256",
					"internalType": "uint256"
				}
			]
		},
		{
			"type": "error",
			"name": "JBUniswapV4LPSplitHook_InvalidProjectId",
			"inputs": [
				{
					"name": "projectId",
					"type": "uint256",
					"internalType": "uint256"
				},
				{
					"name": "controller",
					"type": "address",
					"internalType": "address"
				},
				{
					"name": "projectToken",
					"type": "address",
					"internalType": "address"
				}
			]
		},
		{
			"type": "error",
			"name": "JBUniswapV4LPSplitHook_InvalidStageForAction",
			"inputs": [
				{
					"name": "projectId",
					"type": "uint256",
					"internalType": "uint256"
				},
				{
					"name": "terminalToken",
					"type": "address",
					"internalType": "address"
				},
				{
					"name": "tokenId",
					"type": "uint256",
					"internalType": "uint256"
				}
			]
		},
		{
			"type": "error",
			"name": "JBUniswapV4LPSplitHook_InvalidTerminalToken",
			"inputs": [
				{
					"name": "projectId",
					"type": "uint256",
					"internalType": "uint256"
				},
				{
					"name": "terminalToken",
					"type": "address",
					"internalType": "address"
				}
			]
		},
		{
			"type": "error",
			"name": "JBUniswapV4LPSplitHook_NoTokensAccumulated",
			"inputs": [
				{
					"name": "projectId",
					"type": "uint256",
					"internalType": "uint256"
				}
			]
		},
		{
			"type": "error",
			"name": "JBUniswapV4LPSplitHook_NotHookSpecifiedInContext",
			"inputs": [
				{
					"name": "expectedHook",
					"type": "address",
					"internalType": "address"
				},
				{
					"name": "actualHook",
					"type": "address",
					"internalType": "address"
				}
			]
		},
		{
			"type": "error",
			"name": "JBUniswapV4LPSplitHook_OnlyOneTerminalTokenSupported",
			"inputs": [
				{
					"name": "projectId",
					"type": "uint256",
					"internalType": "uint256"
				},
				{
					"name": "terminalToken",
					"type": "address",
					"internalType": "address"
				}
			]
		},
		{
			"type": "error",
			"name": "JBUniswapV4LPSplitHook_Permit2AmountOverflow",
			"inputs": [
				{
					"name": "token",
					"type": "address",
					"internalType": "address"
				},
				{
					"name": "amount",
					"type": "uint256",
					"internalType": "uint256"
				},
				{
					"name": "maxAmount",
					"type": "uint256",
					"internalType": "uint256"
				}
			]
		},
		{
			"type": "error",
			"name": "JBUniswapV4LPSplitHook_PoolAlreadyDeployed",
			"inputs": [
				{
					"name": "projectId",
					"type": "uint256",
					"internalType": "uint256"
				},
				{
					"name": "terminalToken",
					"type": "address",
					"internalType": "address"
				},
				{
					"name": "tokenId",
					"type": "uint256",
					"internalType": "uint256"
				}
			]
		},
		{
			"type": "error",
			"name": "JBUniswapV4LPSplitHook_PriceDeviationTooHigh",
			"inputs": [
				{
					"name": "spotTick",
					"type": "int24",
					"internalType": "int24"
				},
				{
					"name": "twapTick",
					"type": "int24",
					"internalType": "int24"
				},
				{
					"name": "maxDeviationTicks",
					"type": "int24",
					"internalType": "int24"
				}
			]
		},
		{
			"type": "error",
			"name": "JBUniswapV4LPSplitHook_SplitSenderNotValidControllerOrTerminal",
			"inputs": [
				{
					"name": "projectId",
					"type": "uint256",
					"internalType": "uint256"
				},
				{
					"name": "sender",
					"type": "address",
					"internalType": "address"
				},
				{
					"name": "controller",
					"type": "address",
					"internalType": "address"
				}
			]
		},
		{
			"type": "error",
			"name": "JBUniswapV4LPSplitHook_TemporaryAllowanceNotConsumed",
			"inputs": [
				{
					"name": "token",
					"type": "address",
					"internalType": "address"
				},
				{
					"name": "spender",
					"type": "address",
					"internalType": "address"
				},
				{
					"name": "allowance",
					"type": "uint256",
					"internalType": "uint256"
				}
			]
		},
		{
			"type": "error",
			"name": "JBUniswapV4LPSplitHook_TerminalNotFound",
			"inputs": [
				{
					"name": "projectId",
					"type": "uint256",
					"internalType": "uint256"
				},
				{
					"name": "token",
					"type": "address",
					"internalType": "address"
				}
			]
		},
		{
			"type": "error",
			"name": "JBUniswapV4LPSplitHook_TerminalTokensNotAllowed",
			"inputs": [
				{
					"name": "groupId",
					"type": "uint256",
					"internalType": "uint256"
				},
				{
					"name": "requiredGroupId",
					"type": "uint256",
					"internalType": "uint256"
				}
			]
		},
		{
			"type": "error",
			"name": "JBUniswapV4LPSplitHook_TwapUnavailable",
			"inputs": [
				{
					"name": "projectId",
					"type": "uint256",
					"internalType": "uint256"
				},
				{
					"name": "terminalToken",
					"type": "address",
					"internalType": "address"
				}
			]
		},
		{
			"type": "error",
			"name": "JBUniswapV4LPSplitHook_UnclaimedFeeTokenChanged",
			"inputs": [
				{
					"name": "previousToken",
					"type": "address",
					"internalType": "address"
				},
				{
					"name": "nextToken",
					"type": "address",
					"internalType": "address"
				}
			]
		},
		{
			"type": "error",
			"name": "JBUniswapV4LPSplitHook_ZeroLiquidity",
			"inputs": [
				{
					"name": "amount0",
					"type": "uint256",
					"internalType": "uint256"
				},
				{
					"name": "amount1",
					"type": "uint256",
					"internalType": "uint256"
				}
			]
		},
		{
			"type": "error",
			"name": "PRBMath_MulDiv_Overflow",
			"inputs": [
				{
					"name": "x",
					"type": "uint256",
					"internalType": "uint256"
				},
				{
					"name": "y",
					"type": "uint256",
					"internalType": "uint256"
				},
				{
					"name": "denominator",
					"type": "uint256",
					"internalType": "uint256"
				}
			]
		},
		{
			"type": "error",
			"name": "SafeERC20FailedOperation",
			"inputs": [
				{
					"name": "token",
					"type": "address",
					"internalType": "address"
				}
			]
		}
	],
	"args": [
		"0xE7d0F5ADC3847d4AfD70B7bcd58e34B1AAFDffbc",
		"0xCF5870A8F942110C2ea89fd03B7a3D578816a265",
		"0x8eA8B4B71e8C68b92A14E16b8c6Ab18B5C42f113",
		"0x000000000022D473030F116dDEE9F6B43aC78BA3",
		"0x952648f3A4BbE85C07398e7D3235D330dBFACA32"
	],
	"solcInputHash": "feb4ad817a44a08c1249a296009f12a6",
	"bytecode": "0x61014080604052346101d55760a081615dd3803803809161002082856101ec565b8339810103126101d55761003381610223565b6020820151916001600160a01b03831683036101d55761005560408201610223565b6060820151909390916001600160a01b03831683036101d55760800151926001600160a01b03841684036101d5576004926020926080528160a05260c0526040519283809263293c499960e01b825260018060a01b03165afa9081156101e1575f9161019b575b5060e0526101005261012052604051615b9b908161023882396080518181816101ba0152613936015260a05181818161051b015281816110420152818161158c0152818161174d015281816126d90152818161284d015281816131fa01528181613a4a0152613ee3015260c051818181611d84015281816150870152615151015260e051818181611ead01526138410152610100518181816104fa01528181610eb001528181611021015281816119580152818161322801528181613a290152613f0b015261012051818181611f6e015281816127d80152613dd30152f35b90506020813d6020116101d9575b816101b6602093836101ec565b810103126101d557516001600160a01b03811681036101d5575f6100bc565b5f80fd5b3d91506101a9565b6040513d5f823e3d90fd5b601f909101601f19168101906001600160401b0382119082101761020f57604052565b634e487b7160e01b5f52604160045260245ffd5b51906001600160a01b03821682036101d55756fe608080604052600436101561001c575b50361561001a575f80fd5b005b5f905f3560e01c90816301ffc9a714612123575080630c39832a146120f457806310e51e1414611f9d5780631d831d5c14611f595780632322bc7c14611f15578063249d39e914611ef957806326c0e4b214611edc578063293c499914611e98578063293d9dfe14611e6e5780633676996c14611e3c57806345d1012d14611e1557806346ca626b14611dfa5780634f3a8ba814611db35780636afdd85014611d6f578063718a77ed14611d2857806374a2fa6d146116de578063791b98bc146116b65780637fd6f15c14611699578063826a5e741461163e578063860870a7146115bb57806388bc2ef3146115775780639785f1ed1461154f578063978db958146114b15780639aa5d46214610f25578063a866583514610edf578063b5d2553314610e9b578063bd81a3de14610e71578063c15a6fce14610e47578063c5a0938814610aac578063cd0802e51461088b578063ce974d151461025c578063dc4c90d314610233578063dd1b9c4a14610216578063ecb567a7146101ec5763f434c9140361000f57346101e957806003193601126101e9576040517f00000000000000000000000000000000000000000000000000000000000000006001600160a01b03168152602090f35b80fd5b50346101e95760203660031901126101e95760406020916004358152600b83522054604051908152f35b50346101e957806003193601126101e95760206040516127108152f35b50346101e957806003193601126101e9576002546040516001600160a01b039091168152602090f35b50346101e95760803660031901126101e9576004359061027a612176565b9061028d8361028881613824565b6138b0565b6001600160a01b0361029f838561281c565b161561086a57828152600d6020526040812060018060a01b0383165f5260205260405f20548015610849576102d3846127bb565b848352600c6020526040832060018060a01b0385165f526020526102f960405f206124f8565b91610305838688612b2c565b610312838287858a612a14565b6040516370a0823160e01b81523060048201526001600160a01b03831695906020816024818a5afa90811561083e57869161080c575b50610452610355836139af565b604051600360f81b6020820152601160f81b602182015290949061044d9061038a81602281015b03601f19810183528261221c565b6103926128a9565b926040519060208201526001600160801b036044351660408201526001600160801b036064351660608201526080808201528a60a082015260a081526103d960c08261221c565b6103e28461291d565b526103ec8361291d565b5088516020808b0151604080516001600160a01b0394851693810193909352921691810191909152306060820152610427816080810161037c565b6104308461293e565b5261043a8361293e565b5061037c604051938492602084016129a2565b613bb7565b6040516370a0823160e01b81523060048201526020816024818b5afa9081156107905787916107d8575b506104999161048a9161269b565b92610494836139af565b61269b565b926104a3886126bc565b6040516320c94b1360e11b8152600481018a905298906103808a6024816001600160a01b0385165afa998a156107cd579960409161054c9a9b8a9261079b575b50825163ef200d5560e01b81529a8b9283928789887f00000000000000000000000000000000000000000000000000000000000000007f00000000000000000000000000000000000000000000000000000000000000006001600160a01b03166004890161263a565b038173a0eda8c548ba76f53708ec4905ad1fbb1c84843a5af48015610790578798889161075b575b5061057e87613d17565b8a6105d961058b8c6140f8565b928b610596866140f8565b936001600160a01b036105a88b614fcc565b16808210156107565750885b6001600160a01b03161493841561074d578a9485925b5015610744578b958693614425565b6001600160801b03811680156107325750602060249a9b9c9d6040519b8c80926370a0823160e01b82523060048301525afa998a15610727578d908d9b6106e7575b50908461063394939261062d8a6139af565b9d6144c0565b61063b61473d565b5f1981019a908b116106d357899a836106d09b52600d60205260408c2060018060a01b0387165f5260205260405f2055828b52600e60205260408b2060018060a01b0386165f5260205260405f209062ffffff198254169062ffffff16179055818a52600f60205260408a2060018060a01b0385165f5260205260405f209062ffffff198254169062ffffff16179055614774565b80f35b634e487b7160e01b8a52601160045260248afd5b9392919a50506020833d60201161071f575b816107066020938361221c565b8101031261071b579151989091908c8461061b565b5f80fd5b3d91506106f9565b6040513d8e823e3d90fd5b6364407c8960e01b8c5260045260248bfd5b8a958693614425565b8b9485926105ca565b6105b4565b905061078091985060403d604011610789575b610778818361221c565b810190612583565b9790975f610574565b503d61076e565b6040513d89823e3d90fd5b6107be9192506103803d81116107c6575b6107b6818361221c565b810190612292565b50905f6104e3565b503d6107ac565b6040513d8a823e3d90fd5b90506020813d602011610804575b816107f36020938361221c565b8101031261071b575161049961047c565b3d91506107e6565b90506020813d602011610836575b816108276020938361221c565b8101031261071b57515f610348565b3d915061081a565b6040513d88823e3d90fd5b60649284638623c06f60e01b845260045260018060a01b0316602452604452fd5b634550cd6f60e11b81526004929092526001600160a01b0316602452604490fd5b503461071b57604036600319011261071b576004356108a8612176565b906108b68161028881613824565b805f52600960205260405f2054806109b5575b50805f52600760205260405f205491826108e1578380f35b5f82815260076020526040812055600454906001600160a01b03610904836126bc565b1691823b1561071b575f9160848392604051948593849263b1e6d2a160e01b8452306004850152602484015260018060a01b0316968760448401528960648401525af190816109a0575b5061096857508252600760205260408220555b5f80808380f35b6040805193845233602085015290927f908d0dfd8e6a1766b34c117564501edc5353761bd2c7b158a6767efbf8885f639190a3610961565b6109ad9195505f9061221c565b5f935f61094e565b5f82815260086020908152604080832080546009845282852085905581546001600160a01b0319169091556001600160a01b031680845260119092529091208054919291610a0490839061269b565b9055604080518281523360208201526001600160a01b0386169291839186917f908d0dfd8e6a1766b34c117564501edc5353761bd2c7b158a6767efbf8885f6391a36040519163a9059cbb60e01b5f5260045260245260205f60448180865af19060015f5114821615610a8b575b6040526108c957635274afe760e01b5f5260045260245ffd5b906001811516610aa357823b15153d15161690610a72565b503d5f823e3d90fd5b61016036600319011261071b576001600160a01b03610ac9612684565b163003610e20576064356001600160a01b03610ae4826126bc565b168015610e0657338103610dec5760843560018103610dd55750610b07826127bb565b6001600160a01b0381168015610dbb575f9260243580610c80575b50845f52600b60205260405f205415610c0a575b50602090602493855f5260068352610b5360405f20918254613124565b90556040516370a0823160e01b815230600482015293849182905afa918215610bff575f92610bc9575b5090610b8b610b919261379c565b9061269b565b90805f52600660205260405f20548210610ba757005b5f52600660205260405f2054906325a34a5760e11b5f5260045260245260445ffd5b91506020823d602011610bf7575b81610be46020938361221c565b8101031261071b57905190610b8b610b7d565b3d9150610bd7565b6040513d5f823e3d90fd5b90610380602492604051938480926320c94b1360e11b82528960048301525afa938415610bff576001600160701b0360a06024966020955f91610c60575b50015116865f52600b845260405f2055935090610b36565b610c7991506103803d81116107c6576107b6818361221c565b5089610c48565b6040516370a0823160e01b815230600482015291945090602081602481865afa908115610bff575f91610d89575b50604051916323b872dd60e01b5f52336004523060245260445260205f60648180875af160015f5114811615610d6a575b826040525f60605215610d57576370a0823160e01b8252306004830152602082602481865afa8015610bff575f90610d23575b610d1c925061269b565b9285610b22565b506020823d602011610d4f575b81610d3d6020938361221c565b8101031261071b57610d1c9151610d12565b3d9150610d30565b82635274afe760e01b5f5260045260245ffd5b6001811516610d8057833b15153d151616610cdf565b823d5f823e3d90fd5b90506020813d602011610db3575b81610da46020938361221c565b8101031261071b575186610cae565b3d9150610d97565b82846375f5afe960e01b5f5260045260245260445260645ffd5b631e34745960e11b5f52600452600160245260445ffd5b9063b4c20d6760e01b5f526004523360245260445260645ffd5b906375f5afe960e01b5f526004526024525f60445260645ffd5b6001600160a01b03610e30612684565b16637f4205dd60e11b5f523060045260245260445ffd5b3461071b57602036600319011261071b576004355f526007602052602060405f2054604051908152f35b3461071b57602036600319011261071b576004355f526006602052602060405f2054604051908152f35b3461071b575f36600319011261071b576040517f00000000000000000000000000000000000000000000000000000000000000006001600160a01b03168152602090f35b3461071b57604036600319011261071b57610ef8612176565b6004355f52600d60205260405f209060018060a01b03165f52602052602060405f20541515604051908152f35b3461071b57606036600319011261071b57600435610f41612176565b815f52600d60205260405f2060018060a01b0382165f5260205260405f205491821561149157610f70816126bc565b6040516320c94b1360e11b8152600481018390526001600160a01b0382169461038082602481895afa918215610bff575f9261146f575b50610fb28285612760565b835f52600660205260405f205492831561145c579582918697604061100e9888611073610fde826127bb565b988995835f52600c602052855f2060018060a01b0386165f52602052611005865f206124f8565b9d8e8686612b2c565b855163ef200d5560e01b815296879586957f00000000000000000000000000000000000000000000000000000000000000007f00000000000000000000000000000000000000000000000000000000000000006001600160a01b03166004890161263a565b038173a0eda8c548ba76f53708ec4905ad1fbb1c84843a5af4958615610bff575f915f97611439575b50875f52600e60205260405f2060018060a01b038b165f526020526101906110cb60405f205460020b84613103565b60020b139182156113ff575b9282935f93611215575b611175989085156111ec57905b85156111c357915b85156111bd57505f9b5b6040519861110d8a6121ff565b8b8a5260018060a01b031660208a015260018060a01b03169a8b60408a0152606089015260020b608088015260020b60a087015260c086015260443560e086015261010085015215159687610120850152610140840152610160830152610180820152613131565b805f52600d60205260405f20825f526020527f85dfdb7bf22c5cc99f5a0cc5f318d28b441810bb08c1b718bc1079008fcda2e96040805f2054948151908152336020820152a4005b9b611100565b50895f52600f60205260405f2060018060a01b038d165f5260205260405f205460020b916110f6565b50895f52600e60205260405f2060018060a01b038d165f5260205260405f205460020b906110ee565b9250905061122689828c898c612a14565b6040516370a0823160e01b8152306004820152966001600160a01b038716602089602481845afa988915610bff575f996113c2575b5090602493929161126b8d6139af565b604051600360f81b6020820152601160f81b6021820152909a90611320908e9061044d9061129c816022810161037c565b6112a46128a9565b926040518960208201525f60408201525f60608201526080808201525f60a082015260a081526112d560c08261221c565b6112de8561291d565b526112e88461291d565b508051602091820151604080516001600160a01b0393841694810194909452911690820152306060820152610427816080810161037c565b8b5f526006602052602060405f205492604051978880926370a0823160e01b82523060048301525afa8015610bff578e965f91611387575b5061137761137d936113716111759e946104949461269b565b90613124565b966139af565b93929098506110e1565b9b9196505060208b3d6020116113ba575b816113a56020938361221c565b8101031261071b5799518d9590611377611358565b3d9150611398565b9392919098506020843d6020116113f7575b816113e16020938361221c565b8101031261071b5760249351989091929361125b565b3d91506113d4565b9150875f52600f60205260405f2060018060a01b038b165f5260205261019061142f60405f205460020b89613103565b60020b13916110d7565b909650611455915060403d60401161078957610778818361221c565b958a61109c565b84631050251960e11b5f5260045260245ffd5b6114899192506103803d81116107c6576107b6818361221c565b509086610fa7565b638623c06f60e01b5f5260045260018060a01b031660245260445260645ffd5b3461071b57604036600319011261071b576004356114cd612176565b90805f52600d60205260405f2060018060a01b0383165f5260205260405f205491821561152e579161001a92611502836127bb565b835f52600c60205260405f2060018060a01b0383165f5260205261152860405f206124f8565b93612a14565b90638623c06f60e01b5f5260045260018060a01b031660245260445260645ffd5b3461071b575f36600319011261071b576001546040516001600160a01b039091168152602090f35b3461071b575f36600319011261071b576040517f00000000000000000000000000000000000000000000000000000000000000006001600160a01b03168152602090f35b3461071b57604036600319011261071b576115d4612176565b6004355f908152600c602090815260408083206001600160a01b03948516845282529182902080546001820154600292830154855192871683528187169483019490945260a081811c62ffffff169583019590955260b81c90910b60608201529216608083015290f35b3461071b57604036600319011261071b57611657612176565b61165f61254b565b506004355f52600c60205260405f209060018060a01b03165f5260205260a061168a60405f206124f8565b611697604051809261218c565bf35b3461071b575f36600319011261071b576020600554604051908152f35b3461071b575f36600319011261071b576003546040516001600160a01b039091168152602090f35b3461071b57604036600319011261071b576004356116fb816126bc565b6040516320c94b1360e11b8152600481018390526001600160a01b038216919061038081602481865afa908115610bff575f91611d08575b5061173e8185612760565b604051632c11262b60e11b81527f00000000000000000000000000000000000000000000000000000000000000006001600160a01b031660048201819052602482018690526044820194909452929173a0eda8c548ba76f53708ec4905ad1fbb1c84843a602085606481845af4948515610bff575f95611ccc575b50855f52600d60205260405f2060018060a01b0386165f5260205260405f2054611c8d57855f52600a60205260ff60405f205416611c6a576117fa866127bb565b90865f52600660205260405f205415611c57576001600160a01b0361181f878961281c565b1615611c34575f878152600a60209081526040808320805460ff19166001179055600d82528083206001600160a01b038a1684529091529020548790156118d3575b505061187393508460243591876139f5565b815f52600c60205260405f2060018060a01b0382165f5260205260a061189b60405f206124f8565b20917f61f2675031f59d21563ef85d55fe3d258a504397e4a77c0ba13ad620ce073ab560206040519333855260018060a01b031693a4005b612710956118df61254b565b50856118ea89614fcc565b6001600160a01b0386811695918891811687811015611c2c575095935b8760208d60018060a01b0360015416986040519a6119248c6121cf565b60018060a01b03168b52828b019860018060a01b0316895260408b019e8f5261199560608c019860c88a5260808d019b8c527f000000000000000000000000000000000000000000000000000000000000000097604051968795869563316d0fe560e01b87528b8b6004890161263a565b0381875af4918215610bff578b948f91948f94958d968d955f91611be2575b50976119bf8d613d17565b976001600160a01b0389169687611b07575b5050505050505050505060205f9160c460018060a01b036003541691604051948593849263f702040560e01b8452611a0c600485018d61218c565b6001600160a01b031660a48401525af18015610bff57611ac1575b505f8a8152600c602090815260408083206001600160a01b038d811685529252909120945185549082166001600160a01b031991821617865592516001860180549a51935160b81b62ffffff60b81b1662ffffff60a01b60a09590951b949094169183166001600160d01b0319909b169a909a17179190911790975590516002909201805492909616911617909355611873928686611861565b9291906020843d602011611aff575b81611add6020938361221c565b8101031261071b5761187398611af4600295612575565b509850909192611a27565b3d9150611ad0565b60409798999a5090611b30929188519a8b988997889763ef200d5560e01b89526004890161263a565b03915af4918215610bff575f905f93611bb7575b50611b51611b57916140f8565b926140f8565b916001600160a01b031690818111801590611ba4575b611b845750505060208a8d8d8180808e8e8e6119d1565b63e3b1ec1560e01b5f5260045260245260018060a01b031660445260645ffd5b506001600160a01b038316811015611b6d565b611b519350611b579150611bd99060403d60401161078957610778818361221c565b93909150611b44565b955050965093509350506020813d602011611c24575b81611c056020938361221c565b8101031261071b578d8a938e938d96611c1e8d9561227e565b5f6119b4565b3d9150611bf8565b949050611907565b634550cd6f60e11b5f90815260048890526001600160a01b038716602452604490fd5b86631050251960e11b5f5260045260245ffd5b63465fb04d60e11b5f90815260048790526001600160a01b038616602452604490fd5b5f868152600d602090815260408083206001600160a01b038916808552925282205463f639028560e01b83526004899052602491909152604452606490fd5b9094506020813d602011611d00575b81611ce86020938361221c565b8101031261071b57611cf99061227e565b93866117b9565b3d9150611cdb565b611d2191506103803d81116107c6576107b6818361221c565b5084611733565b3461071b57604036600319011261071b57611d41612176565b6004355f52600e60205260405f209060018060a01b03165f52602052602060405f205460020b604051908152f35b3461071b575f36600319011261071b576040517f00000000000000000000000000000000000000000000000000000000000000006001600160a01b03168152602090f35b3461071b57604036600319011261071b57611dcc612176565b6004355f52600f60205260405f209060018060a01b03165f52602052602060405f205460020b604051908152f35b3461071b575f36600319011261071b57602060405160c88152f35b3461071b575f36600319011261071b575f546040516001600160a01b039091168152602090f35b3461071b57602036600319011261071b576004355f526008602052602060018060a01b0360405f205416604051908152f35b3461071b57602036600319011261071b576004355f526009602052602060405f2054604051908152f35b3461071b575f36600319011261071b576040517f00000000000000000000000000000000000000000000000000000000000000006001600160a01b03168152602090f35b3461071b575f36600319011261071b576020600454604051908152f35b3461071b575f36600319011261071b5760206040516127108152f35b3461071b57604036600319011261071b57611f2e612176565b6004355f52600d60205260405f209060018060a01b03165f52602052602060405f2054604051908152f35b3461071b575f36600319011261071b576040517f00000000000000000000000000000000000000000000000000000000000000006001600160a01b03168152602090f35b3461071b5760c036600319011261071b576024356004356044356001600160a01b0381169081900361071b576064356001600160a01b038116919082900361071b576084356001600160a01b038116939084900361071b5760a4356001600160a01b038116959086900361071b57600254916001600160a01b0383166120e55783156120e55761271082116120cc57811515806120c4575b6120ae5780612090575b6004556005556001600160601b0360a01b16176002556001600160601b0360a01b60035416176003556001600160601b0360a01b60015416176001556001600160601b0360a01b5f5416175f555f80f35b6001600160a01b036120a1826126bc565b168015610e06575061203f565b9063d95b2ff360e01b5f5260045260245260445ffd5b508015612035565b50632b478a5160e21b5f5260045261271060245260445ffd5b631cb8f72960e11b5f5260045ffd5b3461071b57602036600319011261071b576004355f52600a602052602060ff60405f2054166040519015158152f35b3461071b57602036600319011261071b576004359063ffffffff60e01b821680920361071b5760209163e49655b760e01b8114908115612165575b5015158152f35b6318b4127160e31b1490508361215e565b602435906001600160a01b038216820361071b57565b80516001600160a01b03908116835260208083015182169084015260408083015162ffffff169084015260608083015160020b9084015260809182015116910152565b60a0810190811067ffffffffffffffff8211176121eb57604052565b634e487b7160e01b5f52604160045260245ffd5b6101a0810190811067ffffffffffffffff8211176121eb57604052565b90601f8019910116810190811067ffffffffffffffff8211176121eb57604052565b519065ffffffffffff8216820361071b57565b519063ffffffff8216820361071b57565b519061ffff8216820361071b57565b5190811515820361071b57565b51906001600160a01b038216820361071b57565b8092910391610380831261071b57610120831261071b57604051610120810181811067ffffffffffffffff8211176121eb576040526122d08261223e565b81526122de6020830161223e565b60208201526122ef6040830161223e565b60408201526123006060830161223e565b606082015261231160808301612251565b608082015260a08201516001600160701b038116810361071b5760a082015261233c60c08301612251565b60c082015260e0820151906001600160a01b038216820361071b576102609160e08201526101008301516101008201529361011f19011261071b5760405190610260820182811067ffffffffffffffff8211176121eb576124ef91610360916040526123ab6101208201612262565b84526123ba6101408201612262565b60208501526123cc6101608201612251565b60408501526123de6101808201612271565b60608501526123f06101a08201612271565b60808501526124026101c08201612271565b60a08501526124146101e08201612271565b60c08501526124266102008201612271565b60e08501526124386102208201612271565b61010085015261244b6102408201612271565b61012085015261245e6102608201612271565b6101408501526124716102808201612271565b6101608501526124846102a08201612271565b6101808501526124976102c08201612271565b6101a08501526124aa6102e08201612271565b6101c08501526124bd6103008201612271565b6101e08501526124d06103208201612271565b6102008501526124e3610340820161227e565b61022085015201612262565b61024082015290565b90604051612505816121cf565b82546001600160a01b0390811682526001840154808216602084015260a081901c62ffffff16604084015260b81c600290810b6060840152909301549092166080830152565b60405190612558826121cf565b5f6080838281528260208201528260408201528260608201520152565b51908160020b820361071b57565b919082604091031261071b576125a4602061259d84612575565b9301612575565b90565b610100809165ffffffffffff815116845265ffffffffffff602082015116602085015265ffffffffffff604082015116604085015265ffffffffffff606082015116606085015263ffffffff60808201511660808501526001600160701b0360a08201511660a085015263ffffffff60c08201511660c085015260018060a01b0360e08201511660e08501520151910152565b6001600160a01b0391821681529181166020830152604082019290925291811660608301529182166080820152911660a08201526101e0810192916126829160c001906125a7565b565b610144356001600160a01b038116810361071b5790565b919082039182116126a857565b634e487b7160e01b5f52601160045260245ffd5b604051632eec7b5560e11b815260048101919091526020816024817f00000000000000000000000000000000000000000000000000000000000000006001600160a01b03165afa908115610bff575f9161271e575b506001600160a01b031690565b90506020813d602011612758575b816127396020938361221c565b8101031261071b57516001600160a01b038116810361071b575f612711565b3d915061272c565b90815f52600b60205260405f2054801591821561278e575b50506127815750565b8061028861268292613824565b600a91925060a06001600160701b0391015116026001600160701b0381169081036126a857115f80612778565b60405163ea78803f60e01b815260048101919091526020816024817f00000000000000000000000000000000000000000000000000000000000000006001600160a01b03165afa908115610bff575f9161271e57506001600160a01b031690565b604051630862026560e41b815260048101919091526001600160a01b039091166024820152602081806044810103817f00000000000000000000000000000000000000000000000000000000000000006001600160a01b03165afa908115610bff575f9161271e57506001600160a01b031690565b67ffffffffffffffff81116121eb5760051b60200190565b604051606091906128ba838261221c565b6002815291601f1901825f5b8281106128d257505050565b8060606020809385010152016128c6565b60405160c091906128f4838261221c565b6005815291601f1901825f5b82811061290c57505050565b806060602080938501015201612900565b80511561292a5760200190565b634e487b7160e01b5f52603260045260245ffd5b80516001101561292a5760400190565b80516002101561292a5760600190565b80516003101561292a5760800190565b80516004101561292a5760a00190565b805180835260209291819084018484015e5f828201840152601f01601f1916010190565b906129b59060408352604083019061297e565b906020818303910152815180825260208201916020808360051b8301019401925f915b8383106129e757505050505090565b9091929394602080612a05600193601f19868203018752895161297e565b970193019301919392906129d8565b9290612b26612682959392610494612b16612a3760018060a01b03885116613b79565b6104946020890198612b07612a5460018060a01b038c5116613b79565b604051600160f81b6020820152601160f81b60218201526002815290979061044d90612a8160228261221c565b612a896128a9565b926040519060208201525f60408201525f60608201525f608082015260a0808201525f60c082015260c08152612ac060e08261221c565b612ac98461291d565b52612ad38361291d565b5084518e51604080516001600160a01b0393841660208201529290911690820152306060820152610427816080810161037c565b516001600160a01b0316613b79565b95516001600160a01b0316613b79565b93613c6c565b91929092604051612b3e60608261221c565b6002815260208101906040368337610708612b588261291d565b525f612b638261293e565b52600154604051637cb7cbf960e11b8152926001600160a01b039091169183919060c4830190612b96600485018861218c565b60c060a48501525180915260e4830191905f5b8181106130c7575050509181805f9403915afa5f9181612fb4575b50612be957505050639dbd540560e01b5f5260045260018060a01b031660245260445ffd5b9390929193916002835110612f97575050612c10612c068261293e565b5160060b9161291d565b5160060b9003667fffffffffffff198112667fffffffffffff8213176126a85760060b90610708820560020b915f81129081612f86575b50612f71575b612c5690613d17565b73fffd8963efd1fc6a506488495d951d51639616826401000276a21982016001600160a01b031611612f5157602081901b640100000000600160c01b031680801561071b5760ff826001600160801b031060071b83811c67ffffffffffffffff1060061b1783811c63ffffffff1060051b1783811c61ffff1060041b1783811c821060031b177f07060605060205000602030205040001060502050303040105050304000000006f8421084210842108cc6318c6db6d54be85831c1c601f161a17169160808310155f14612f455750607e1982011c5b800280607f1c8160ff1c1c800280607f1c8160ff1c1c800280607f1c8160ff1c1c800280607f1c8160ff1c1c800280607f1c8160ff1c1c800280607f1c8160ff1c1c80029081607f1c8260ff1c1c80029283607f1c8460ff1c1c80029485607f1c8660ff1c1c80029687607f1c8860ff1c1c80029889607f1c8a60ff1c1c80029a8b607f1c8c60ff1c1c80029c8d80607f1c9060ff1c1c800260cd1c6604000000000000169d60cc1c6608000000000000169c60cb1c6610000000000000169b60ca1c6620000000000000169a60c91c6640000000000000169960c81c6680000000000000169860c71c670100000000000000169760c61c670200000000000000169660c51c670400000000000000169560c41c670800000000000000169460c31c671000000000000000169360c21c672000000000000000169260c11c674000000000000000169160c01c6780000000000000001690607f190160401b1717171717171717171717171717693627a301d71055774c85026f028f6481ab7f045a5af012a19d003aa919810160801d60020b906fdb2df09e81959a81455e260799a0632f0160801d60020b918282145f14612f1d575090505b60c8612ef18383613103565b60020b13612efd575050565b6326c53bb160e21b5f5260020b60045260020b60245260c860445260645ffd5b6001600160a01b0390811690612f32846140f8565b1611612f3e5750612ee5565b9050612ee5565b905081607f031b612d2c565b6318521d4960e21b5f9081526001600160a01b0391909116600452602490fd5b90627fffff1981146126a8575f190190612c4d565b61070891500760060b15155f612c47565b639dbd540560e01b5f5260045260018060a01b031660245260445ffd5b9091503d805f833e612fc6818361221c565b810160408282031261071b57815167ffffffffffffffff811161071b5782019181601f8401121561071b578251612ffc81612891565b9361300a604051958661221c565b81855260208086019260051b8201019084821161071b57602001915b8183106130ad5750505060208101519067ffffffffffffffff821161071b570181601f8201121561071b5780519060208061306084612891565b61306d604051918261221c565b848152019260051b82010192831161071b57602001905b82821061309557505050905f612bc4565b602080916130a28461227e565b815201910190613084565b82518060060b810361071b57815260209283019201613026565b825163ffffffff16845286945060209384019390920191600101612ba9565b600291820b910b0390627fffff198212627fffff8313176126a857565b600282810b9082900b1261311b57906125a4916130e6565b6125a4916130e6565b919082018092116126a857565b80515f9081526006602052604081205580516101608201805190939291613161916001600160a01b031690613daf565b9261317160c08301948551613124565b845260608201936131828551613d17565b8092845194604081019060018060a01b0382511696602082019360018060a01b038551169087519961328d61010086019182519c608088019d8e5160020b60a08a019c8d5160020b9260018060a01b03895116946101808d019a8b519760646040519e8f906304d14abb60e41b825260018060a01b037f000000000000000000000000000000000000000000000000000000000000000016600483015260018060a01b037f00000000000000000000000000000000000000000000000000000000000000001660248301526044820152015260848d015260a48c015260c48b015260018060a01b031660e48a01526101048901526101248801526101448701526101648601906125a7565b6020846102848173a0eda8c548ba76f53708ec4905ad1fbb1c84843a5af4938415610bff575f94613764575b50518451865160e0870151935194516132f696956132ef956113719492936001600160a01b039283169391928992911690613e9c565b965161269b565b835183519195916001600160a01b039182169190613315908216614fcc565b168082101561375f5750805b6001600160a01b031614801561375357613363869889925b1561374a57889283915b6133508d5160020b6140f8565b61335d875160020b6140f8565b91614425565b976001600160801b0389169889156137345786516040516370a0823160e01b81523060048201529c9d9b9c9a9b906020908c9060249082906001600160a01b03165afa9a8b15610bff575f9b613700575b5086516133c9906001600160a01b03166139af565b610120870151909c90156134a35750906133f0939291518d5160020b865160020b916144c0565b6133f861473d565b5f19810199908a116126a85782515f908152600d6020908152604080832087516001600160a01b0390811685529083528184209d909d55925185518352600e825283832087518e1684528252838320805462ffffff1990811662ffffff93841617909155945186518452600f83528484208851909e1684529c9091529190208054909216991698909817909755612682965b51915190516001600160a01b0390811692911690614774565b9094506126829c5061366b9293915061014086015194519360018060a01b0385511694602081019060018060a01b03825116975f88155f146136eb5750835b89806136af575050613666939261037c61364061037c94613653946001600160801b038b5b6040515f6020820152600b60f81b602182018190526022820152600560fa1b6023820181905260248201526005815299829061354460258d61221c565b61354c6128e3565b9d604051956020870152604086015216606084015216608082015260a0808201525f60c082015260c0815261358260e08261221c565b61358b8a61291d565b526135958961291d565b5060018060a01b038151166040519060208201525f604082015260016060820152606081526135c560808261221c565b6135ce8a61293e565b526135d88961293e565b5060018060a01b038451166040519060208201525f6040820152600160608201526060815261360860808261221c565b6136118a61294e565b5261361b8961294e565b5051604080516001600160a01b03909216602083015230908201529182906060820190565b6136498761295e565b5261361b8661295e565b61365c8461296e565b5261043a8361296e565b613c21565b806136a1575b8115159081613696575b50613687575b5061348a565b6136909061514a565b5f613681565b90508114155f61367b565b6136aa8161514a565b613671565b61364061037c94613653946001600160801b038b61037c95816136669c9b989e6136db575b5050613507565b6136e491615079565b8f816136d4565b84156134e2576136fb858a615079565b6134e2565b909a506020813d60201161372c575b8161371c6020938361221c565b8101031261071b5751995f6133b4565b3d915061370f565b50633df9465560e11b5f5260045260245260445ffd5b87928391613343565b61336387988992613339565b613321565b9350916020843d602011613794575b816137806020938361221c565b8101031261071b57925192916113716132b9565b3d9150613773565b6001600160a01b03165f818152601060205260409020546137c6575f52601160205260405f205490565b6020602491604051928380926370a0823160e01b82523060048301525afa908115610bff575f916137f5575090565b90506020813d60201161381c575b816138106020938361221c565b8101031261071b575190565b3d9150613803565b6040516331a9108f60e11b815260048101919091526020816024817f00000000000000000000000000000000000000000000000000000000000000006001600160a01b03165afa908115610bff575f9161387c575090565b90506020813d6020116138a8575b816138976020938361221c565b8101031261071b576125a49061227e565b3d915061388a565b6001600160a01b03169033821415806138f7575b6138cc575050565b6084925060405191631326f75560e11b835260048301523360248301526044820152601d6064820152fd5b50604051631a45b42760e11b81523360048201526024810183905260448101829052601d606482015260016084820181905260a482015260208160c4817f00000000000000000000000000000000000000000000000000000000000000006001600160a01b03165afa908115610bff575f91613975575b50156138c4565b90506020813d6020116139a7575b816139906020938361221c565b8101031261071b576139a190612271565b5f61396e565b3d9150613983565b6001600160a01b031661eeee81146139f0576020602491604051928380926370a0823160e01b82523060048301525afa908115610bff575f916137f5575090565b504790565b9391949290845f52600660205260405f2054908115613b70576040805163ef200d5560e01b8152908180613a7b8989878e8e7f00000000000000000000000000000000000000000000000000000000000000007f00000000000000000000000000000000000000000000000000000000000000006001600160a01b03166004890161263a565b038173a0eda8c548ba76f53708ec4905ad1fbb1c84843a5af4918215610bff57612682985f925f94613b47575b5090613af791895f52600c60205260405f2060018060a01b0382165f5260205260405f20916040519a613ada8c6121ff565b8b526001600160a01b0390811660208c01521660408a01526124f8565b6060880152600290810b60808801520b60a086015260c085015260e08401525f610100840181905260016101208501526101408401526001600160a01b0316610160830152610180820152613131565b613b67919450613af792935060403d60401161078957610778818361221c565b93909291613aa8565b50505050505050565b6001600160a01b031680156139f0576020602491604051928380926370a0823160e01b82523060048301525afa908115610bff575f916137f5575090565b60018060a01b0360035416603c4201918242116126a857813b1561071b575f91613c00918360405180968195829463dd46508f60e01b845260406004850152604484019061297e565b90602483015203925af18015610bff57613c175750565b5f6126829161221c565b60035442603c810193916001600160a01b03169084106126a857803b1561071b575f92613c009260405180968195829463dd46508f60e01b845260406004850152604484019061297e565b9390831580613d0f575b613d08576001600160a01b03613c8b84614fcc565b16906001600160a01b038116821115613d01575b6001600160a01b031614928315613cfa5780935b15613cf357505b80613cd4575b5081613ccb57505050565b61268292614902565b835f526006602052613ceb60405f20918254613124565b90555f613cc0565b9050613cba565b8193613cb3565b5080613c9f565b5050505050565b508115613c76565b602060a0600180821b036002541692206040518281019182526006604082015260408152613d4660608261221c565b519020602460405180948193631e2eaeaf60e01b835260048301525afa908115610bff575f91613d7d57506001600160a01b031690565b90506020813d602011613da7575b81613d986020938361221c565b8101031261071b57515f612711565b3d9150613d8b565b60405163c6c116bd60e01b81523060048201526024810182905292916020846044817f00000000000000000000000000000000000000000000000000000000000000006001600160a01b03165afa938415610bff575f94613e68575b508315613e61576001600160a01b031690813b1561071b575f9160848392604051948593849263181faefd60e11b845230600485015260248401528860448401523060648401525af18015610bff57613c175750565b505f925050565b9093506020813d602011613e94575b81613e846020938361221c565b8101031261071b5751925f613e0b565b3d9150613e77565b9495949390916001600160a01b03613eb4848761281c565b1690811580156140f0575b6140e557613ecc84614da3565b60405163b31c3c4160e01b81526001600160a01b037f0000000000000000000000000000000000000000000000000000000000000000811660048301527f000000000000000000000000000000000000000000000000000000000000000081166024830152604482018990528681166064830181905295166084820152959890958991613f5d9060a48301906125a7565b6020816101c48173a0eda8c548ba76f53708ec4905ad1fbb1c84843a5af4908115610bff575f916140b3575b508061408a575b505090602092915f613fa0614f10565b97613fea604051998a96879586946313da831760e01b86523060048701526024860152604485015260648401528c60848401523060a484015260e060c484015260e483019061297e565b03925af1928315610bff575f93614054575b5061400690614da3565b908082111561404c576140189161269b565b808210156140445750915b8281811061402f575050565b6325a34a5760e11b5f5260045260245260445ffd5b905091614023565b50505f614018565b9092506020813d602011614082575b816140706020938361221c565b8101031261071b575191614006613ffc565b3d9150614063565b61409761409c9184614de3565b614e88565b9081116140aa575b80613f90565b975060206140a4565b90506020813d6020116140dd575b816140ce6020938361221c565b8101031261071b57515f613f89565b3d91506140c1565b505f96505050505050565b508015613ebf565b60020b908160ff1d82810118620d89e881116144125763ffffffff9192600182167001fffcb933bd6fad37aa2d162d1a59400102600160801b1891600281166143f6575b600481166143da575b600881166143be575b601081166143a2575b60208116614386575b6040811661436a575b6080811661434e575b6101008116614332575b6102008116614316575b61040081166142fa575b61080081166142de575b61100081166142c2575b61200081166142a6575b614000811661428a575b618000811661426e575b620100008116614252575b620200008116614237575b62040000811661421c575b6208000016614203575b5f126141fb575b0160201c90565b5f19046141f4565b6b048a170391f7dc42444e8fa290910260801c906141ed565b6d2216e584f5fa1ea926041bedfe9890920260801c916141e3565b916e5d6af8dedb81196699c329225ee6040260801c916141d8565b916f09aa508b5b7a84e1c677de54f3e99bc90260801c916141cd565b916f31be135f97d08fd981231505542fcfa60260801c916141c2565b916f70d869a156d2a1b890bb3df62baf32f70260801c916141b8565b916fa9f746462d870fdf8a65dc1f90e061e50260801c916141ae565b916fd097f3bdfd2022b8845ad8f792aa58250260801c916141a4565b916fe7159475a2c29b7443b29c7fa6e889d90260801c9161419a565b916ff3392b0822b70005940c7a398e4b70f30260801c91614190565b916ff987a7253ac413176f2b074cf7815e540260801c91614186565b916ffcbe86c7900a88aedcffc83b479aa3a40260801c9161417c565b916ffe5dee046a99a2a811c461f1969c30530260801c91614172565b916fff2ea16466c96a3843ec78b326b528610260801c91614169565b916fff973b41fa98c081472e6896dfb254c00260801c91614160565b916fffcb9843d60f6159c9db58835c9266440260801c91614157565b916fffe5caca7e10e4e61c3624eaa0941cd00260801c9161414e565b916ffff2e50f5f656932ef12357cf3c7fdcc0260801c91614145565b916ffff97272373d413259a46990580e213a0260801c9161413c565b826345c3193d60e11b5f5260045260245ffd5b936001600160a01b03838116908316116144b8575b6001600160a01b0385811695908316861161445b5750506125a4935061502c565b919490939192906001600160a01b03821611156144ac57829161448291614488959461502c565b93614ff2565b6001600160801b0381166001600160801b038316105f146144a7575090565b905090565b9150506125a492614ff2565b90919061443a565b805160208201516001600160a01b03908116979116956146b7959094939092915f886147285750855b89806146f1575050613666939261037c926001600160801b038381613653959a5b604051600160f91b6020820152600b60f81b602182018190526022820152600560fa1b6023820181905260248201526005815298829061454b60258c61221c565b6145536128e3565b9c6040519761456560208a018b61218c565b60020b60c089015260020b60e088015216610100860152166101208401521661014082015230610160820152610180808201525f6101a08201526101a081526145b06101c08261221c565b6145b98761291d565b526145c38661291d565b5060018060a01b038151166040519060208201525f604082015260016060820152606081526145f360808261221c565b6145fc8761293e565b526146068661293e565b5060018060a01b036020820151166040519060208201525f6040820152600160608201526060815261463960808261221c565b6146428761294e565b5261464c8661294e565b508051604080516001600160a01b0390921660208301523090820152614675816060810161037c565b61467e8761295e565b526146888661295e565b50602090810151604080516001600160a01b039092169282019290925230918101919091529182906060820190565b806146e3575b81151590816146d8575b506146cf5750565b6126829061514a565b90508114155f6146c7565b6146ec8161514a565b6146bd565b926001600160801b0383816136669897949a61037c978361365398614718575b505061450a565b61472191615079565b8e83614711565b86156144e957614738878a615079565b6144e9565b600354604051631d5e528f60e21b815290602090829060049082906001600160a01b03165afa908115610bff575f916137f5575090565b94602060249594939792604051968780926370a0823160e01b825230600483015260018060a01b03165afa948515610bff575f95614870575b506147b7876139af565b9480821115614867576147c99161269b565b935b8082111561485e576147dc9161269b565b925b80821115614855576147ef9161269b565b915b8082111561484c576148029161269b565b905b8061482d575b508061481557505050565b612682926001600160a01b03811661eeee1492615240565b825f52600660205261484460405f20918254613124565b90555f61480a565b50505f90614804565b50505f916147f1565b50505f926147de565b50505f936147cb565b9094506020813d60201161489c575b8161488c6020938361221c565b8101031261071b5751935f6147ad565b3d915061487f565b9081526001600160a01b039182166020820152604081019290925290911660608201525f6080820181905260e060a08301819052600690830152654c502046656560d01b61010083015261012060c083018190528201526101400190565b908215614d9e5760055480840290848204036126a8576127109004614927818561269b565b5f918061498b575b918160a0935f516020615b6f5f395f51905f52959361496f575b604051978852602088015260408701526060860152336080860152600180831b031693a3565b61498661eeee600180881b0386161483868a615240565b614949565b906004549161499a858461281c565b6001600160a01b03811693846149d05750505050505f516020615b6f5f395f51905f529160a0915f86905b91935091935061492f565b6149de9192939495506127bb565b5f878152600860205260409020549091906001600160a01b031680151580614d8b575b614d6c57505f9160018060a01b0316918215159586614cd2575b6001600160a01b0388169261eeee8403614c3c5750906020614a5e93926004549087808c6040519889958694859363fef4325760e01b85523092600486016148a4565b03925af18015610bff5787935f91614c07575b50965b614b00575b5050915f516020615b6f5f395f51905f52959391859360a096614a9e575b50506149c5565b15614ae157875f52600860205260405f20906001600160601b03871b825416179055865f52600960205260405f20614ad7848254613124565b90555b5f80614a97565b50865f52600760205260405f20614af9848254613124565b9055614ada565b838592939896949750819314614bf6575b50506040516370a0823160e01b815230600482015290602082602481895afa918215610bff575f92614bc2575b5080821115614bb957614b509161269b565b915b614b7183865f526011602052614b6c8360405f205461269b565b613124565b855f52601160205260405f2055845f52601060205260405f20948554965f1988019788116126a8575f516020615b6f5f395f51905f529760a097559193958193959750614a79565b50505f91614b52565b9091506020813d602011614bee575b81614bde6020938361221c565b8101031261071b5751905f614b3e565b3d9150614bd1565b614c00925061269b565b825f614b11565b9350506020833d602011614c34575b81614c236020938361221c565b8101031261071b578692515f614a71565b3d9150614c16565b969291906020614c7791614c51888b87615344565b60045490885f8d6040519687958694859363fef4325760e01b85523092600486016148a4565b03925af18015610bff5784915f91614c9b575b50614c9690988a6153bb565b614a74565b9150506020813d602011614cca575b81614cb76020938361221c565b8101031261071b57518390614c96614c8a565b3d9150614caa565b6040516370a0823160e01b8152306004820152909150602081602481875afa908115610bff575f91614d3a575b5090835f52601160205260405f20614d18868254613124565b9055835f52601060205260405f20805490600182018092116126a85755614a1b565b90506020813d602011614d64575b81614d556020938361221c565b8101031261071b57515f614cff565b3d9150614d48565b90506315de587f60e01b5f5260045260018060a01b031660245260445ffd5b506001600160a01b038316811415614a01565b505050565b614dac816139af565b906001600160a01b03811661eeee14614ddf57614dc89061379c565b80821115614dd9576125a49161269b565b50505f90565b5090565b91905f905f198185099080850292838084109303928084039314614e7557670de0b6b3a7640000831015614e535750670de0b6b3a7640000907faccb18165bd6fe31ae1cf318dc5b51eee0e1ba569b88cd74c1773b91fac1066994950990828211900360ee1b910360121c170290565b60649186630c740aef60e31b8352600452602452670de0b6b3a7640000604452fd5b505050670de0b6b3a76400009192500490565b905f5f19606184096061840291828083109203918083039214614f06576064821015614eea5750606460617f5c28f5c28f5c28f5c28f5c28f5c28f5c28f5c28f5c28f5c28f5c28f5c28f5c2994950990828211900360fe1b910360021c170290565b60649085630c740aef60e31b8252600452606160245281604452fd5b5050606490049150565b5f546001600160a01b03811615614fb7576040516125a491614f3360208361221c565b5f825260405190614f4560408361221c565b600782526618d85cda13dd5d60ca1b602092830152604080515f9381019390935260018382015282529091606091821b6bffffffffffffffffffffffff19167310d629fe9be3073a98bda02aa1e4a81d4ad5a7c760631b186001600160e01b03191691614fb2908461221c565b61548b565b50604051614fc660208261221c565b5f815290565b6001600160a01b03811661eeee03614fed57505f5b6001600160a01b031690565b614fe1565b6125a4926150219290916001600160a01b0380831690821611615026575b90036001600160a01b03169061590c565b615a5f565b90615010565b6125a492615021929091906001600160a01b0380821690831611615073575b6150616001600160a01b03828116908416615996565b9190036001600160a01b0316916159df565b9061504b565b6001600160a01b03908116907f0000000000000000000000000000000000000000000000000000000000000000166150b2838284615344565b6001600160a01b03831161512a5760035490603c4201928342116126a857813b1561071b575f60849265ffffffffffff829660405198899788966387517c4560e01b8852600488015260018060a01b0316602487015260018060a01b031660448601521660648401525af18015610bff57613c175750565b50630e0b51ef60e11b5f5260045260245260018060a01b0360445260645ffd5b6003545f917f00000000000000000000000000000000000000000000000000000000000000006001600160a01b031690813b1561071b576040516387517c4560e01b81526001600160a01b03918216600482018190529390911660248201525f60448201819052600160648301528160848183865af18015610bff5761522b575b506151d7838284615a82565b156151e157505050565b6151eb8183615acf565b1561521757826151fb9183615b33565b15615204575050565b635274afe760e01b825260045260249150fd5b635274afe760e01b83526004829052602483fd5b6152389193505f9061221c565b5f915f6151cb565b91929092801561533e57615254848461281c565b926001600160a01b03841691821561531b5783159384615302575b156152fc57805b833b1561071b575f92610104916040519586948593639e6eec0560e01b8552600485015260018060a01b038b166024850152604484015285606484015260c060848401528560c484015260e060a48401528560e48401525af18015610bff576152ec575b506152e3575050565b612682916153bb565b5f6152f69161221c565b5f6152da565b5f615276565b61531682876001600160a01b038a16615344565b61526f565b63283ecc9960e01b5f90815260048390526001600160a01b038716602452604490fd5b50505050565b9190615351828285615a82565b1561535b57505050565b6153658184615acf565b1561539d57906153759183615b33565b1561537d5750565b635274afe760e01b5f9081526001600160a01b0391909116600452602490fd5b635274afe760e01b5f9081526001600160a01b038416600452602490fd5b604051636eb1769f60e11b81523060048201526001600160a01b03838116602483015290929116602083604481845afa928315610bff575f93615424575b508261540457505050565b63620e174b60e11b5f5260045260018060a01b031660245260445260645ffd5b9092506020813d602011615450575b816154406020938361221c565b8101031261071b5751915f6153f9565b3d9150615433565b60208151910151906020811061546c575090565b5f199060200360031b1b1690565b90815181101561292a570160200190565b919290926060938151602081106158fa575060208451111561588457602584511061586b5783516024101561292a5760448401518060f81c905f198201968288116126a8575f91611fe0805f9260f31c1616938085046020149015171592836126a8575f1985018581116126a8578a15602060058d901b9c8d041417159a5f19810191908211908c5b6126a857816126a85782811115615859576001600160f81b0319615538828e61547a565b511661554d5780156126a8575f19018c615514565b9798999a9b505050505050615562838861547a565b51875160f882901c9160f31c611fe016821560208483041417156126a8576155899161269b565b60051c906001850180861190816126a857604080518881018201601f1916909152818152908b5f5b8281106158435750508197600581018091116126a857866126a8578711156157b6575b505050906155e191613124565b60ff811161579f57600560206156339260405197889183808401998051918291018b5e83019163ffffffff60e01b168483015260ff60f81b9060f81b1660248201520301601a1981018752018561221c565b8351601f166157695783515b84526126a857808651039060405196601f19603f848a010116604052828852015f5b828110615754575050506156a59060208060405197889382850196518091885e8401908282015f8152815193849201905e01015f815203601f19810186528561221c565b8351601f16615721576020806156ea93865180975b52866040519788958487015e8401908282015f8152815193849201905e01015f815203601f19810184528361221c565b81601f815116155f146156fa5750565b805160051c600181018091116126a8578060051b90808204602014901517156126a8579052565b835160051c91600183018093116126a8578260051b92808404602014901517156126a857602080916156ea9480976156ba565b80602080928401015182828b01015201615661565b835160051c600181018091116126a8578060051b9080820460201490151761563f57634e487b7160e01b5f52601160045260245ffd5b631f1a544360e31b5f5260045260ff60245260445ffd5b8260249c9a989694939c9b999795929b905b6126a85781811015615820576157de818c61547a565b5160f81c600181018091116126a85760ff811161579f5760f81b6001600160f81b0319165f1a61580e828e61547a565b53600581018091116126a8578c6157c8565b505091939597995091939597505f1982146126a857906001016155e15f806155d4565b6020818193010151828286010152018c906155b1565b5050506155e192959697989950613124565b835163d4e1560560e01b5f52600452602560245260445ffd5b60206158ca6158986125a495979496615458565b6040516001600160e01b031990941683850152600160f91b602485015260058452926158c560258261221c565b615458565b946040519586938385015260408401528051918291018484015e81015f838201520301601f19810183528261221c565b634c84276360e01b5f5260045260245ffd5b90606082901b905f19600160601b84099282808510940393808503948584111561071b571461598f578190600160601b900981805f03168092046002816003021880820260020302808202600203028082026002030280820260020302808202600203028091026002030293600183805f03040190848311900302920304170290565b5091500490565b81810291905f1982820991838084109303928084039384600160601b111561071b57146159d657600160601b910990828211900360a01b910360601c1790565b50505060601c90565b91818302915f198185099383808610950394808603958685111561071b5714615a57579082910981805f03168092046002816003021880820260020302808202600203028082026002030280820260020302808202600203028091026002030293600183805f03040190848311900302920304170290565b505091500490565b906001600160801b038216809203615a7357565b6393dafdf160e01b5f5260045ffd5b92916040519163095ea7b360e01b5f5260018060a01b031660045260245260205f60448180875af19260015f5114841615615abe575b50604052565b3d15903b151516909216915f615ab8565b60405163095ea7b360e01b5f9081526001600160a01b03909316600452602483905290929160209060448180875af19260015f5114841615615b115750604052565b60018492941516615b2a573b15153d151616915f615ab8565b833d5f823e3d90fd5b92916040519163095ea7b360e01b5f5260018060a01b031660045260245260205f60448180875af19260015f5114841615615b11575060405256fe799fc5c9aa18f6919621cc3591d51e19da1a23afbc8023f54528f632f790b5c8a164736f6c634300081c000a",
	"gitCommit": "npm:@bananapus/univ4-lp-split-hook-v6@0.0.61",
	"gitDirty": false,
	"history": []
}